S0150000436F6E7374616E74506F7765722E73726563B8
S11300000C94BB000C9402040C9460040C94D8006F
S11300100C94D8000C94D8000C94D8000C94D800FC
S11300200C94D8000C94D8000C94D8000C94D800EC
S11300300C94D8000C94D8000C9405030C94D800AC
S11300400C94D8000C94D8000C949D020C94D80005
S11300500C94D8000C94D8000C94D8000C94D800BC
S11300600C94D8000C94D8006E616E00696E660022
S113007000407A10F35A00A0724E18090010A5D45B
S1130080E80000E87648170000E40B54020000CAB8
S11300909A3B000000E1F5050000809698000000FE
S11300A040420F000000A08601000000102700005D
S11300B00000E803000000006400000000000A00E3
S11300C0000000000100000000002C76D888DC67E6
S11300D04F0823DFC1DFAE59E1B1B796E5E3E4533E
S11300E0C63AE651997696E8E6C28426EB898C9B5B
S11300F062ED407C6FFCEFBC9C9F40F2BAA56FA5FB
S1130100F490055A2AF75C936B6CF9676DC11BFC7C
S1130110E0E40D47FEF520E6B500D0ED902E030097
S1130120943577050080841E080000204E0A0000E4
S113013000C80C333333330F986E12831141EF8DA3
S11301402114893BE65516CFFEE6DB18D1844B38E3
S11301501BF77C1D901DA4BBE424203284725E2214
S11301608100C9F124ECA1E53D276364696E6F70D9
S1130170737578585B0011241FBECFEFD8E0DEBF43
S1130180CDBF12E0A0E0B1E0E4E8F8E202C00590DF
S11301900D92AA32B107D9F724E0AAE2B2E001C075
S11301A01D92AF36B207E1F70E94D7040C944014B5
S11301B00C9400002F923F924F925F926F927F9225
S11301C08F929F92AF92BF92CF92DF92EF92FF9263
S11301D00F931F93CF93DF93CDB7DEB7C854D109E4
S11301E00FB6F894DEBF0FBECDBF91E28E010E5D57
S11301F01F4FF801292F11922A95E9F780E28AA36B
S1130200FE0131967F0111929A95E9F7898325962B
S11302101FAF0EAF25972796FFAEEEAE27978091BE
S11302206A04813009F4ABC020F0823009F439C18A
S11302306AC19E012D5B3F4F790100E010E0302E32
S113024029961FAF0EAF2997C801880F991F880FF1
S1130250991FFC01E559FC4F4080518062807380F6
S1130260FC01ED59FC4F80809180A280B380C801CD
S11302708E5F9E4F6C01FC018081893419F077E513
S1130280272E02C061E4262EF801EE0FFF1FEB5962
S1130290FB4F6081718180E090E00E942E0A20E093
S11302A030EC4FE754E40E948D099B01AC01F60148
S11302B08081893429F06DE37AE087E591E404C014
S11302C06DE37AE087ED9FE30E94C10AF601B081F5
S11302D00F5F1F4F502FA12F2996EEADFFAD299729
S11302E0ED58FC4F2081211102C049E201C040E2D7
S11302F02081211104C020916E04231511F020E205
S113030001C02AE23081311102C038E201C030E27A
S1130310F701C080D180F2E0EF0EF11C7F926F9262
S11303205F924F92BF92AF929F928F921F922F92A1
S11303309F938F937F936F931F92BF93AF935F931A
S11303401F924F931F922F931F923F9328E031E007
S11303503F932F93DF92CF920E94951060E0832DFC
S11303600E94F505C6010E941A060FB6F894DEBF76
S11303700FBECDBF0230110509F061CFC4C0E091BA
S11303806E04F0E0EE5FFE4F8081893419F047E59A
S1130390C42E02C031E4C32EE0916E04F0E0EE0FEF
S11303A0FF1FEB59FB4F6081718180E090E00E9458
S11303B02E0A20E030EC4FE754E40E948D099B01A3
S11303C0AC01E0916E04F0E0EE5FFE4F8081893471
S11303D029F06DE37AE087E591E404C06DE37AE007
S11303E087ED9FE3E0916E04F0E0EE5FFE4FB08096
S11303F0D0906E041F92CF920E94C10A9F938F9354
S11304007F936F931F92BF928D2D90E001969F93DF
S11304108F938FE291E09F938F931F930F930E948A
S1130420951080916D040FB6F894DEBF0FBECDBF5A
S1130430893419F097E5D92E02C081E4D82E609151
S11304406B0470916C0480E090E00E942E0A20E01E
S113045030EC4FE754E40E948D099B01AC0180917C
S11304606D04893429F06DE37AE087E591E404C0F2
S11304706DE37AE087ED9FE3C0906D041F92DF92F5
S11304800E94C10A9F938F937F936F931F92CF9281
S113049083E591E09F938F93FF92EF920E949510D2
S11304A01FC061E771E0C8010E941F1080916904B8
S11304B0811102C09AE201C090E280916904811125
S11304C002C080E201C08AE21F929F931F928F9321
S11304D08FE791E09F938F93FF92EF920E94951084
S11304E060E080E00E94F505C8010E941A0660E001
S11304F081E00E94F505C7010E941A060FB6F89420
S1130500DEBF0FBECDBFC85BDF4F0FB6F894DEBFB2
S11305100FBECDBFDF91CF911F910F91FF90EF9050
S1130520DF90CF90BF90AF909F908F907F906F900F
S11305305F904F903F902F9008951F920F920FB6A7
S11305400F9211240F931F932F933F934F935F9315
S11305506F937F938F939F93AF93BF93CF93DF93C7
S1130560EF93FF93C0916103D0916203CE01019692
S113057090936203809361030E945406C65DDD4F2D
S113058088838091610390916203FC01E65DFD4FD5
S1130590DF0111972C912B3319F4029720F420C01A
S11305A087339140E8F0108280912A028B33A1F4C2
S11305B003E713E025E733E045E654E062E071E049
S11305C08AE292E00E94EC06892B31F010926A04D0
S11305D0109269040E94DA0010926203109261037F
S11305E0FF91EF91DF91CF91BF91AF919F918F9147
S11305F07F916F915F914F913F912F911F910F9137
S11306000F900FBE0F901F9018951F920F920FB668
S11306100F9211244F925F926F927F928F929F92CA
S1130620AF92BF92DF92EF92FF920F931F932F939B
S11306303F934F935F936F937F938F939F93AF9366
S1130640BF93CF93DF93EF93FF9380910001909139
S113065001018A30910509F0B0C0C0E0D0E0DC2E81
S11306608C2F0E942105BC0180E090E00E942E0A9C
S113067020E030EC4FE754E40E948D0920E030E0A4
S113068040E751E40E94C10A8E01000F111F000FC0
S1130690111FF801ED59FC4F6083718382839383AA
S11306A0DE01AE5FBE4F2C91CE01880F991FA801C9
S11306B045595C4F7A01203511F5DC01AB59BB4F2C
S11306C06D917C9180809180A280B38080E090E0E5
S11306D00E942E0A20E030EC4FE754E40E948D097A
S11306E02B013C01A50194016DE37AE087E591E4D7
S11306F00E948D099B01AC01C301B20113C0FC012E
S1130700EB59FB4F6081718180E090E00E942E0ADA
S113071020E030EC4FE754E40E948D092DE33AE0E9
S113072047ED5FE30E94C10AF7016083718382830E
S11307309383F801E559FC4F608171818281938133
S113074020E030E040E450E40E94C10A20E030E0C0
S113075040EA50E40E948D0920E030EF4FE755E471
S11307600E94C10A0E94FF090E942E0A4B015C01EB
S113077020E030EF4FE755E40E94BC0A18162CF035
S1130780C501B4010E94FF0902C06FEF7FE08D2D07
S11307900E943C052196C230D10509F060CF82E069
S11307A00E94210590936C0480936B040E94DA00EC
S11307B0109201011092000105C00196909301016D
S11307C080930001FF91EF91DF91CF91BF91AF91A1
S11307D09F918F917F916F915F914F913F912F9155
S11307E01F910F91FF90EF90DF90BF90AF909F907B
S11307F08F907F906F905F904F900F900FBE0F90EF
S11308001F9018951F920F920FB60F9211240F93F9
S11308101F932F933F934F935F936F937F938F9384
S11308209F93AF93BF93EF93FF93809173038111D1
S113083004C080917403882369F003E713E025E77B
S113084033E045E654E062E071E089E991E00E941A
S1130850EC0621C080916A04813061F018F0823086
S113086099F019C090916E0481E0911180E0809319
S11308706E0411C080916D04893411F089E401C0C3
S113088080E580936D0407C09091690481E0911123
S113089080E0809369040E94DA00FF91EF91BF9198
S11308A0AF919F918F917F916F915F914F913F9104
S11308B02F911F910F910F900FBE0F901F901895BD
S11308C01F920F920FB60F9211240F931F932F9321
S11308D03F934F935F936F937F938F939F93AF93C4
S11308E0BF93EF93FF9380917303811104C08091B0
S11308F07403882369F003E713E025E733E045E652
S113090054E062E071E089E991E00E94EC0626C0BF
S113091080916A048F5F80936A0480916A048330B3
S1130920E8F0809169048823A9F0E0916E04F0E076
S113093080916D04EE5FFE4F8083E0916E04F0E0E1
S113094080916B0490916C04EE0FFF1FEB59FB4FE9
S11309509183808310926A04109269040E94DA00E1
S1130960FF91EF91BF91AF919F918F917F916F9183
S11309705F914F913F912F911F910F910F900FBE57
S11309800F901F90189584B5826084BD85B58360EF
S113099085BD89EF87BDEEE6F0E0808182608083CB
S11309A008958AE08093690083E08DBB089578946C
S11309B03B9A0E9434060E94D1040E94130560EA07
S11309C076E881E090E00E9453050E94C2050E94EF
S11309D0C304E0916E04F0E0EE5FFE4F80818093EB
S11309E06D04E0916E04F0E0EE0FFF1FEB59FB4F36
S11309F08081918190936C0480936B04439A2FEFD0
S1130A0089E698E1215080409040E1F700C0000061
S1130A1043982FEF89E698E1215080409040E1F718
S1130A2000C00000EBCFECE7F0E0808180648083BD
S1130A30EAE7F0E08081876080838081806C808336
S1130A40089590917C00907F90937C0090917C001D
S1130A508770982B90937C0080917A0080648093B7
S1130A607A0080917A0086FDFCCF809178002091F5
S1130A70790090E0922B0895CF93DF93EB01282F18
S1130A80217030E0C901880F991F806C0E946905AC
S1130A908D2F8F700E948E058C2F0E948E05DF9102
S1130AA0CF910C948A059B01AC011092B90060E0CF
S1130AB074E284EF90E00E94CF0EDA01C9014097FE
S1130AC0A109B109B695A795979587958093B80024
S1130AD0089594EA9093BC009091BC0097FFFCCFDA
S1130AE09091B900987F983091F48093BB0084E88A
S1130AF08093BC008091BC0087FFFCCF2091B9009B
S1130B00287F81E090E0283121F080E0089580E0A2
S1130B1090E0089584E98093BC0008958093BB001D
S1130B2084E88093BC008091BC0087FFFCCF909147
S1130B30B900987F21E030E0983211F020E030E0F5
S1130B40C9010895299A8FE99FE00197F1F700C040
S1130B50000029980895289895B1937095B995B196
S1130B60807F86958695982B95B90C94A205CF9392
S1130B70C82F807F0E94AB058C2F8295807FCF91F8
S1130B800C94AB0584B18F6384B92FEF89EF90E0A7
S1130B90215080409040E1F700C0000080E30E94B3
S1130BA0AB058FE090E40197F1F700C0000080E30B
S1130BB00E94AB058FE891E00197F1F700C00000B7
S1130BC080E30E94AB0580E20E94AB0588E20E94AC
S1130BD0B7058CE00E94B70581E00E94B70586E066
S1130BE00E94B70580E80C94B7058295880F880F9A
S1130BF0807C6068862B0C94B705CF93C82F289A05
S1130C0085B1837085B995B18C2F807F8695869543
S1130C10892B85B90E94A20585B1837085B925B158
S1130C20CF7034E0C39FC0011124822B85B9CF91CA
S1130C300C94A2050F931F93CF938C01C0E0F8018D
S1130C40EC0FF11D8081882321F0CF5F0E94FD0508
S1130C50F6CFC13228F480E20E94FD05CF5FF9CFC0
S1130C60CF911F910F910895609104017091050136
S1130C70809106019091070120E038E542E050E0C0
S1130C800E94CF0E215031093093C5002093C40037
S1130C90E1ECF0E0808188618083808180688083DA
S1130CA08EE08093C20008958091C60008952F922B
S1130CB03F924F925F926F927F928F929F92AF92E8
S1130CC0BF92CF92DF92EF92FF920F931F93CF9335
S1130CD0DF93CDB7DEB72A970FB6F894DEBF0FBE09
S1130CE0CDBF7C015B011901C12CD12CCE01019631
S1130CF03C0106969A8789872801440C551C440DAB
S1130D00551D2A01440C551CEA14FB0408F049C083
S1130D1020EFC216D10409F444C06CE270E0C701AC
S1130D200E9414108501009721F08A159B0508F490
S1130D308C0148018E189F08A401B701C3010E94C9
S1130D403410F301E80DF91D10829A859F932985CB
S1130D502F9384EA91E09F938F937F926F920E94E6
S1130D60B7100F900F900F900F900F900F90019766
S1130D70A9F48F819885811524E0920778F4F10114
S1130D80EC0DFD1DE40DF51D9183808378018FEF3B
S1130D90E81AF80A98E0C90ED11CB6CF8FEF9FEF7E
S1130DA002C080E090E02A960FB6F894DEBF0FBE32
S1130DB0CDBFDF91CF911F910F91FF90EF90DF9006
S1130DC0CF90BF90AF909F908F907F906F905F90E7
S1130DD04F903F902F9008954F925F926F927F9221
S1130DE08F929F92AF92BF92CF92DF92EF92FF9237
S1130DF00F931F93CF93DF93CDB7DEB72C970FB626
S1130E00F894DEBF0FBECDBFFC0101900020E9F7CE
S1130E103297A081AB3309F0EDC149016A012B017E
S1130E201082FC0101900020E9F79F012250310952
S1130E3039015C0175013FEFA31AB30AF701808100
S1130E4090E00E940010892BA9F7E614F70468F4D7
S1130E50F301808190E00E940010892B31F0F1E0D1
S1130E606F1A7108F3011182F0CF48E050E067EA8D
S1130E7071E0C7010E9426105C01892B09F078C03B
S1130E80F80110821182F6011182108213821282FB
S1130E90F8E0EF0EF11C8FEF9FEF98878F839A8312
S1130EA089834E0129E0820E911C9F928F92CE017C
S1130EB001969F938F938E01095F1F4F1F930F938A
S1130EC080EB91E09F938F93FF92EF920E94B71073
S1130ED00FB6F894DEBF0FBECDBF8330910589F005
S1130EE09F928F921F930F938CEB91E09F938F931C
S1130EF0FF92EF920E94B7100FB6F894DEBF0FBEB8
S1130F00CDBF0297029708F075C18F819885AC0117
S1130F10415051094230510508F06CC129852934EA
S1130F2019F0203509F066C1F201E40FF51F2083A2
S1130F30FC01E150F048EE0FFF1FEC0DFD1D118286
S1130F40108249815A81BA01615071096230710578
S1130F5008F0CBC1F201E60FF71F2083415050483F
S1130F60440F551FF601E40FF51F11821082BDC115
S1130F7049E050E065EC71E0C7010E9426105C0175
S1130F80892B09F092C0F80110821182F9E0EF0E6A
S1130F90F11C8FEF9FEF9C878B879A878987CE01FF
S1130FA001969F938F934E0127E0820E911C9F928E
S1130FB08F923E0139E0630E711C7F926F928E0115
S1130FC0055F1F4F1F930F938FEC91E09F938F93B7
S1130FD0FF92EF920E94B7100FB6F894DEBF0FBED7
S1130FE0CDBF8430910561F19F928F927F926F9271
S1130FF01F930F9380EE91E09F938F93FF92EF9254
S11310000E94B7100FB6F894DEBF0FBECDBF833079
S1131010910591F09F928F921F930F938EEE91E022
S11310209F938F93FF92EF920E94B7100FB6F8949C
S1131030DEBF0FBECDBF04C02F8138853A8329831C
S11310400297039708F0D6C04F8158854115F4E004
S11310505F0708F0CFC029813A81211584E0380761
S113106008F0C8C08B859C85BC0161507109623051
S1131070710508F0BFC0FC01E150F048EE0FFF1FFE
S1131080EC0DFD1D5183408349855A85CA010197A2
S1131090029708F02AC141505048440F551FF601E9
S11310A0E40FF51F3183208320C148E050E069EF4D
S11310B071E0C7010E9426105C01892B09F080C0F1
S11310C0F801108211828701085F1F4F8FEF9FEF95
S11310D09A8389836BE570E0C8010E94141000971D
S11310E009F488C06C01FFEFCF1ADF0A6BE570E0EA
S11310F0C6010E9414107C016DE570E0C8010E94D5
S11311004E103C01E114F10409F474C0009709F491
S113111071C0E816F90608F06DC0CE0101969F93E0
S11311208F9306969F938F9382E092E09F938F9381
S11311301F930F930E94B71001970FB6F894DEBF68
S11311400FBECDBF029708F055C04F81588541505E
S113115051094230510508F04DC0270131E0431ACE
S1131160510800E010E09401B201C6010E94570644
S113117049815A81415051094230510528F4940162
S1131180B201C6010E9457068FEFE81AF80A4F8190
S113119058854150510901E010E09401B301C701A1
S11311A00E94570649815A814150510942305105E4
S11311B008F09BC09401B301C7010E94570695C073
S11311C04AE050E06BE072E0C7010E942610892BD0
S11311D009F078C0F80110821182F60111821082A0
S11311E01382128268E270E0C7010E9414106C013D
S11311F0892B21F4AA24AA94BA2C77C09E012F5FCC
S11312003F4F59013F932F9386E192E09F938F9331
S1131210FF92EF920E94B7100F900F900F900F90D3
S11312200F900F90019731F745E050E06AE172E0CA
S1131230C5010E9426105C01892BE1F61A861986E5
S113124018861F82CE0107969F938F9302969F93D1
S11312508F9382E092E09F938F93DF92CF920E94CC
S1131260B7100FB6F894DEBF0FBECDBF8130910525
S113127069F489859A8501978230910508F0BACF7F
S1131280F801E80FF91F81E080832FC0029709F06D
S1131290B1CF29853A85215031092230310508F032
S11312A0A9CF8F81988501978230910508F0A2CF4C
S11312B0F801E20FF31F41E04083F801E80FF91F42
S11312C0408313C049E050E060E272E0C7010E942D
S11312D026105C01892B09F08DCFF8011082118250
S11312E0F6011182108213821282C5012C960FB668
S11312F0F894DEBF0FBECDBFDF91CF911F910F9148
S1131300FF90EF90DF90CF90BF90AF909F908F9021
S11313107F906F905F904F9008950E94A1090C9464
S1131320820A0E947B0A58F00E94740A40F029F451
S11313305F3F29F00C946B0A51110C94B60A0C947B
S1131340710A0E94930A68F39923B1F3552391F328
S1131350951B550BBB27AA2762177307840738F020
S11313609F5F5F4F220F331F441FAA1FA9F335D07D
S11313700E2E3AF0E0E832D091505040E695001C31
S1131380CAF72BD0FE2F29D0660F771F881FBB1FEB
S1131390261737074807AB07B0E809F0BB0B802DC9
S11313A0BF01FF2793585F4F3AF09E3F510578F0F5
S11313B00C946B0A0C94B60A5F3FE4F3983ED4F3A2
S11313C0869577956795B795F7959F5FC9F7880FC9
S11313D0911D9695879597F90895E1E0660F771F1B
S11313E0881FBB1F621773078407BA0720F0621BAC
S11313F0730B840BBA0BEE1F88F7E09508950E94D7
S11314009B0A88F09F5798F0B92F9927B751B0F0ED
S1131410E1F0660F771F881F991F1AF0BA95C9F774
S113142014C0B13091F00E94B50AB1E008950C9453
S1131430B50A672F782F8827B85F39F0B93FCCF306
S1131440869577956795B395D9F73EF490958095F1
S1131450709561957F4F8F4F9F4F0895E89409C011
S113146097FB3EF490958095709561957F4F8F4FD3
S11314709F4F9923A9F0F92F96E9BB279395F695E9
S1131480879577956795B795F111F8CFFAF4BB0F67
S113149011F460FF1BC06F5F7F4F8F4F9F4F16C0CB
S11314A0882311F096E911C0772321F09EE8872F55
S11314B0762F05C0662371F096E8862F70E060E011
S11314C02AF09A95660F771F881FDAF7880F96958A
S11314D0879597F9089597F99F6780E870E060E031
S11314E008959FEF80EC089500240A9416161706B9
S11314F018060906089500240A9412161306140601
S113150005060895092E0394000C11F4882352F063
S1131510BB0F40F4BF2B11F460FF04C06F5F7F4F1B
S11315208F4F9F4F089557FD9058440F551F59F002
S11315305F3F71F04795880F97FB991F61F09F3FBC
S113154079F087950895121613061406551FF2CFE5
S11315504695F1DF08C0161617061806991FF1CF35
S113156086957105610508940895E894BB2766275C
S11315707727CB0197F908950E942E0B08F48FEF7B
S113158008950E94D40A0C94820A0E94740A38F0C6
S11315900E947B0A20F0952311F00C946B0A0C94A2
S11315A0710A11240C94B60A0E94930A70F3959F51
S11315B0C1F3950F50E0551F629FF001729FBB2746
S11315C0F00DB11D639FAA27F00DB11DAA1F649FE2
S11315D06627B00DA11D661F829F2227B00DA11D95
S11315E0621F739FB00DA11D621F839FA00D611D1B
S11315F0221F749F3327A00D611D231F849F600D3C
S1131600211D822F762F6A2F11249F5750409AF064
S1131610F1F088234AF0EE0FFF1FBB1F661F771FF0
S1131620881F91505040A9F79E3F510580F00C94BB
S11316306B0A0C94B60A5F3FE4F3983ED4F38695A4
S113164077956795B795F795E7959F5FC1F7FE2B5B
S1131650880F911D9695879597F90895990F00081D
S1131660550FAA0BE0E8FEEF16161706E807F90770
S1131670C0F012161306E407F50798F0621B730B0B
S1131680840B950B39F40A2661F0232B242B252B8C
S113169021F408950A2609F4A140A6958FEF811D2F
S11316A0811D0895A0E1B0E0E8E5FBE00C94F10EA3
S11316B07C011B016A01FC0117821682838181FF70
S11316C044C39E012F5F3F4F3901F7019381F1011C
S11316D093FD859193FF81911F01882309F431C300
S11316E0853239F493FD859193FF81911F018532F1
S11316F039F4B70190E00E94591056016501E5CF15
S113170010E0512C912CFFE1F915D8F08B3279F0CF
S113171038F4803279F08332A1F4F92DF0612EC0CF
S11317208D3261F0803369F4292D21602DC0392D6B
S11317303260932E892D8460982E2AC0E92DE860AA
S113174015C097FC2DC020ED280F2A3088F496FE92
S113175006C03AE0139F200D1124122F19C08AE00D
S1131760589E200D1124522EE92DE0629E2E10C0A9
S11317708E3231F496FCE5C2F92DF0649F2E08C038
S11317808C3621F4292D2068922E02C0883641F42B
S1131790F10193FD859193FF81911F018111B3CFD5
S11317A09BEB980F933020F4992D9061805E07C0D5
S11317B09BE9980F933008F066C1992D9F7E96FFA0
S11317C016E09F73992E853619F49064992E08C0FB
S11317D0863621F4392F3068932E02C0111111502E
S11317E097FE07C01C3350F444244394410E27E071
S11317F00BC0183038F027E017E005C027E09CE361
S1131800492E02C0212F412C560184E0A80EB11CA0
S1131810F6016081718182819381042DA3010E946C
S1131820280F6C01F981FC87F0FF02C0F3FF06C0AA
S113183091FC06C092FE06C000E205C00DE203C0A2
S11318400BE201C000E08C858C7019F001115AC2C2
S11318509BC297FE10C04C0CFC85F4FF04C08A8127
S1131860813309F44A94141474F528E0241578F5A6
S113187088E0482E2CC096FC2AC0812F90E08C155D
S11318809D059CF03CEFC3163FEFD30674F0892D01
S11318908068982E0AC0E2E0F0E0EC0FFD1FE10F33
S11318A0F11D8081803319F411501111F4CF97FE8A
S11318B00EC044244394410E812F90E0C816D906EB
S11318C02CF41C1904C04424439401C010E097FE76
S11318D006C01C141D0434F4C601019605C085E03D
S11318E090E002C081E090E001110196112331F0F3
S11318F0212F30E02F5F3F4F820F931F252D30E0C3
S11319008217930714F4581A01C0512C892D897039
S113191049F4552039F0B70180E290E00E94591053
S11319205A94F7CF002329F0B701802F90E00E944A
S1131930591093FC09C0552039F0B70180E390E0B9
S11319400E9459105A94F7CF97FE4CC04601D7FE17
S113195002C0812C912CC60188199909F301E80F62
S1131960F91FFE87ED87960124193109388B2F87DB
S1131970012F10E01195019511093FEF831693068D
S113198029F4B7018EE290E00E945910C814D904DA
S11319904CF08F8598898815990524F4ED85FE858A
S11319A0818101C080E3F1E08F1A91082D853E8585
S11319B02F5F3F4F3E872D87801691062CF0B7018D
S11319C090E00E945910D9CFC814D90441F49A81E7
S11319D0963320F4953319F43C8534FF81E3B70141
S11319E090E04EC08A81813319F09C859F7E9C874C
S11319F0B70190E00E945910111105C094FC18C061
S1131A0085E690E017C0B7018EE290E00E9459107D
S1131A101E5F82E001E0080FF301E80FF11D8081F1
S1131A20B70190E00E945910802F0113F3CFE6CF45
S1131A3085E490E0B7010E945910D7FC06C0C11498
S1131A40D10441F4EC85E4FF05C0D194C194D108DC
S1131A508DE201C08BE2B70190E00E94591080E34F
S1131A602AE0C216D1042CF08F5FFAE0CF1AD10815
S1131A70F7CFB70190E00E945910B701C601C09694
S1131A800E94591054C1833631F0833779F083357D
S1131A9009F056C020C0560132E0A30EB11CF60175
S1131AA08081898301E010E0630112C05601F2E0F5
S1131AB0AF0EB11CF601C080D18096FE03C0612F29
S1131AC070E002C06FEF7FEFC6010E9443108C01EB
S1131AD0F92DFF7714C0560122E0A20EB11CF601C5
S1131AE0C080D18096FE03C0612F70E002C06FEF0A
S1131AF07FEFC6010E9409108C01F92DF0689F2E1A
S1131B00F3FD1AC0852D90E008171907A8F4B70152
S1131B1080E290E00E9459105A94F4CFF60197FCA9
S1131B20859197FE81916F01B70190E00E94591051
S1131B3051105A94015011090115110579F7F7C094
S1131B40843611F0893661F5560197FE09C024E008
S1131B50A20EB11CF60160817181828193810AC059
S1131B60F2E0AF0EB11CF60160817181072E000C0A
S1131B70880B990BF92DFF769F2E97FF09C090953E
S1131B808095709561957F4F8F4F9F4FF0689F2E82
S1131B902AE030E0A3010E94D010C82EC6183FC02E
S1131BA0092D853721F40F7E2AE030E01DC0097F1E
S1131BB08F3691F018F4883559F0C3C0803719F086
S1131BC0883711F0BEC0006104FF09C0046007C07B
S1131BD094FE08C0066006C028E030E005C020E19D
S1131BE030E002C020E132E0560107FF09C084E082
S1131BF0A80EB11CF601608171818281938108C0B5
S1131C00F2E0AF0EB11CF6016081718180E090E0DA
S1131C10A3010E94D010C82EC6180F77902E96FEEE
S1131C200BC0092D0E7FC11650F494FE0AC092FC1D
S1131C3008C0092D0E7E05C0DC2C092D03C0DC2C48
S1131C4001C0D12E04FF0DC0FE01EC0DF11D8081F9
S1131C50803311F4097E09C002FF06C0D394D394E3
S1131C6004C0802F867809F0D39403FD11C000FFCF
S1131C7006C01C2DD51480F4150D1D190DC0D514E6
S1131C8058F4B70180E290E00E945910D394F7CF42
S1131C90D51410F45D1801C0512C04FF10C0B70115
S1131CA080E390E00E94591002FF17C001FD03C0B9
S1131CB088E790E002C088E590E0B7010CC0802F6F
S1131CC0867859F001FF02C08BE201C080E207FD73
S1131CD08DE2B70190E00E945910C11638F4B701A3
S1131CE080E390E00E9459101150F7CFCA94F30199
S1131CF0EC0DF11D8081B70190E00E945910C110D4
S1131D00F5CF15C0F4E0F51560F584E0581A93FE9C
S1131D101FC0011127C02C8523FF2AC008E610E04C
S1131D20392D3071932EF8018491811124C05520EE
S1131D3009F4E4CCB70180E290E00E9459105A946F
S1131D40F6CFF7018681978126C08FEF9FEF23C0DE
S1131D50B70180E290E00E9459105A945110F8CFD4
S1131D60D8CF512CB701802F90E00E945910D3CFC7
S1131D700CE610E0D5CF91108052B70190E00E949C
S1131D8059100F5F1F4FCFCF23E0251510F483E0C8
S1131D90BDCF512CC0CF6096E2E10C940D0FA1E2AF
S1131DA01A2EAA1BBB1BFD010DC0AA1FBB1FEE1FD1
S1131DB0FF1FA217B307E407F50720F0A21BB30B1C
S1131DC0E40BF50B661F771F881F991F1A9469F798
S1131DD060957095809590959B01AC01BD01CF01F4
S1131DE008952F923F924F925F926F927F928F92BB
S1131DF09F92AF92BF92CF92DF92EF92FF920F9396
S1131E001F93CF93DF93CDB7DEB7CA1BDB0B0FB69F
S1131E10F894DEBF0FBECDBF09942A88398848885C
S1131E205F846E847D848C849B84AA84B984C884F2
S1131E30DF80EE80FD800C811B81AA81B981CE0FE9
S1131E40D11D0FB6F894DEBF0FBECDBFED010895CE
S1131E50283008F027E03327DA01990F311D87FD78
S1131E60916000966105710539F432602E5F3D93EF
S1131E7030E32A95E1F708959F3F30F080387105EB
S1131E80610509F03C5F3C5F3D93913008F0806848
S1131E90911DDF93CF931F930F93FF92EF92192F0E
S1131EA0987F9695E92F96959695E90FFF27E65327
S1131EB0FF4F99273327EE24FF24A701E70105905C
S1131EC00894079428F4360FE71EF81E491F511D85
S1131ED0660F771F881F991F0694A1F70590079432
S1131EE028F4E70EF81E491F561FC11D770F881FDF
S1131EF0991F661F0694A1F70590079428F4F80E1D
S1131F00491F561FC71FD11D880F991F661F771FB2
S1131F100694A1F70590079420F4490F561FC71F94
S1131F20D81F990F661F771F881F0694A9F78491FD
S1131F301095177041F0D695C79557954795F79426
S1131F40E7941A95C1F7E0E7F0E0689415901591CD
S1131F5035916591959105907FE27395E118F10AA9
S1131F60430B560BC90BD009C0F7E10CF11E431FFC
S1131F70561FC91FD01D7EF4703311F48A95E6CF25
S1131F80E894015030F0080F0AF40027021708F40F
S1131F90202F2395022F7A3328F079E37D932A9515
S1131FA0E9F710C07D932A9589F60694979567956D
S1131FB0379517951794E118F10A430B560BC90B83
S1131FC0D00998F023957E9173957A3308F070E3E5
S1131FD07C932013B8F77E9170617D9330F08395E4
S1131FE071E37D9370E32A95E1F71124EF90FF905C
S1131FF00F911F91CF91DF91992787FD90950895B7
S113200091110C94DB13803219F089508550C8F774
S11320100895FC010590615070400110D8F7809537
S113202090958E0F9F1F0895FC018191861721F0D2
S11320308823D9F7992708953197CF010895FB0193
S1132040DC0101900D920020E1F70895FB01DC0111
S11320504150504030F08D910190801919F40020C6
S1132060B9F7881B990B0895FB01DC0141505040DE
S113207048F001900D920020C9F701C01D92415013
S11320805040E0F70895FC01615070400190011048
S1132090D8F7809590958E0F9F1F0895FC0181E0DD
S11320A090E00190061609F4CF010020D1F70197C2
S11320B008950F931F93CF93DF93FB01238121FD99
S11320C003C08FEF9FEF2CC022FF16C046815781BB
S11320D0248135814217530744F4A081B1819D01C5
S11320E02F5F3F4F318320838C93268137812F5F6D
S11320F03F4F3783268314C08B01EC01FB0100841E
S1132100F185E02D0995892BE1F6D80116968D917C
S11321109C911797019617969C938E931697CE01D0
S1132120DF91CF911F910F910895AEE0B0E0EBE9FC
S1132130F0E10C94FF0E0D891E8986E08C831A83CE
S113214009838FEF9FE79E838D83AE01475E5F4FC8
S11321506F89788DCE0101960E94520BEF81F8852C
S1132160E00FF11F10822E96E4E00C941B0FAEE0FA
S1132170B0E0EDEBF0E10C94010F85E08C838B89EA
S11321809C899A838983AE01495E5F4F6D897E89FC
S1132190CE0101960E94CA122E96E2E00C941D0F05
S11321A0FA01AA27283051F1203181F1E8946F9384
S11321B06E7F6E5F7F4F8F4F9F4FAF4FB1E03ED02A
S11321C0B4E03CD0670F781F891F9A1FA11D680FC8
S11321D0791F8A1F911DA11D6A0F711D811D911DFB
S11321E0A11D20D009F468943F912AE0269F112470
S11321F03019305D3193DEF6CF010895462F4770D4
S1132200405D4193B3E00FD0C9F7F6CF462F4F702E
S1132210405D4A3318F0495D31FD4052419302D08C
S1132220A9F7EACFB4E0A695979587957795679532
S1132230BA95C9F700976105710508959B01AC0132
S11322400A2E06945795479537952795BA95C9F759
S1132250620F731F841F951FA01D089520FD09C0E0
S1132260FC0123FD05C022FF02C0738362835183F6
S11322704083089544FD17C046FD17C0AB01BC015F
S1132280DA01FB01AA0FBB1FEE1FFF1F1094D1F749
S11322904A0F5B1F6E1F7F1FCB01BA01660F771FAA
S11322A0881F991F09C033E001C034E0660F771F0F
S11322B0881F991F3150D1F7620F711D811D911D27
S11322C008950F931F93CF93DF938C01C8010E944D
S11322D0E913EC0197FD08C00E940010892BB1F7A7
S11322E0B801CE010E942714CE01DF91CF911F9136
S11322F00F9108958F929F92AF92BF92EF92FF92A7
S11323000F931F93CF93DF938C01D62F7A01B22EB4
S11323100E94E9139C0133272B32310531F02D3211
S1132320310561F48B2D8068B82ED15011F480E012
S113233068C0C8010E94E91397FDF9CFCB2DCD7F6A
S11323402B2D207309F58033F9F4AA24AA94AD0E39
S113235009F443C0C8010E94E91397FD3EC09C01E3
S11323602F7D33272835310549F4C264D250A9F1B1
S1132370C8010E94E91397FF07C02FC0B6FE02C030
S1132380C26001C0C261DA2D812C912C540120ED70
S1132390280F283080F0C4FF04C0B8010E9427141D
S11323A019C02A3040F0C6FFF8CF2F7D3FEE320F20
S11323B0363098F727504C2FC501B4010E943A11CA
S11323C04B015C01C260D15059F0C8010E94E9136D
S11323D097FFDDCFC1FD04C0AACF812C912C5401FD
S11323E0C7FF08C0B094A09490948094811C911C61
S11323F0A11CB11C2C2FB501A401C7010E942E11F0
S113240081E0DF91CF911F910F91FF90EF90BF90EA
S1132410AF909F908F900895A0E2B0E0E2E1F2E1E6
S11324200C94F40E5C01962E7A01F9018E010F5F73
S11324301F4F680180E2D8011D928A95E9F7D50102
S113244013968C9080E090E0612C712C30E061E078
S113245070E083FC259183FE21918F01522E21117E
S113246003C080E090E092C02E3511F4009751F142
S1132470432F50E0481759073CF42D3559F12D32BC
S113248019F4772009F103C0772009F46AC0452DB7
S1132490469546954695D601A40FB11D452D477026
S11324A08B0102C0000F111F4A95E2F7A8015C914D
S11324B0452B4C93651459F0561410F45394E7CFFC
S11324C05A94E5CF31E004C07724739401C0712C91
S11324D00196BFCF772019F08E8180628E833111EF
S11324E003C08824839417C0F6019E012F5D3F4FDB
S11324F08081809581932E173F07D1F7F2CFE114A5
S1132500F10429F0D7018C93F70131967F019A9455
S1132510812C9920F9F0C5010E94E91397FD18C098
S1132520FC01FF2723E0F595E7952A95E1F7EC0DEB
S1132530FD1D208130E0AC014770552702C0359560
S113254027954A95E2F720FDDACFB5010E942714BA
S1132550811087CFE114F10411F0D7011C92C80156
S113256015C0422F469546954695D601A40FB11D38
S1132570422F47708B0102C0000F111F4A95E2F7EA
S1132580A8015C91452B4C93622EA2CFA096EFE05C
S11325900C94100FA0E0B0E0E0EDF2E10C94F40E26
S11325A06C01EB015A01FC0117821682512CF601D1
S11325B0E380FE01E3FC8591E3FE8191182FEF0196
S11325C0882309F4EEC090E00E940010892B21F0CA
S11325D0C6010E946111EBCF153241F4FE01E3FC08
S11325E01591E3FE1191EF01153281F4C6010E94A9
S11325F0E91397FDD4C0412F50E09C0133272417E1
S11326003507A9F2B6010E942714CBC01A3239F457
S1132610E3FC1591E3FE1191EF0101E001C000E03C
S1132620F12C20ED210F2A3080F402606F2D70E030
S113263080E090E040E20E943A11F62EFE01E3FCB5
S11326401591E3FE1191EF01ECCF01FF03C0F110EE
S113265003C0A7C0FF24FA94183619F01C3651F0B1
S113266010C0FE01E3FC1591E3FE1191EF01183651
S113267041F408600460FE01E3FC1591E3FE11914E
S1132680EF01112309F48DC0612F70E08AE691E017
S11326900E94DE13892B09F484C000FD07C0F501F4
S11326A080809180C50102965C0102C0812C912C2E
S11326B01E3651F4F6014681578160E070E0202F08
S11326C0C4010E942E1173CF1336A9F401FD02C078
S11326D0FF24F394C6010E94E91397FD60C081149E
S11326E0910429F0F4018083C40101964C01FA9409
S11326F0F110F0CF50C01B3559F49E01A4016F2D89
S1132700C6010E940C12EC01892B09F044C03EC0A2
S1132710C6010E94611197FD42C01F3661F128F481
S1132720143639F1193651F128C0133771F01537C1
S113273001F123C08114910429F0F4016082C401E1
S113274001964C01FA94FF2071F0C6010E94E9132E
S11327503C0197FD08C00E940010892B59F3B60173
S1132760C3010E94271481149104A9F0F40110827A
S113277012C0006203C0006101C00064202FA401E4
S11327806F2DC6010E947A11811105C0F601838163
S1132790807329F406C000FD0ACF539408CF552056
S11327A019F0852D90E002C08FEF9FEFCDB7DEB713
S11327B0EFE00C94100F992788270895FC010590E9
S11327C0061621F00020D9F7C00108953197CF01F2
S11327D00895CF93DF93EC012B8120FF33C026FFB4
S11327E00AC02F7B2B838E819F8101969F838E83CA
S11327F08A8190E029C022FF0FC0E881F98180819D
S1132800082E000C990B009719F420622B831AC030
S11328103196F983E8830EC0EA85FB85099597FF15
S113282009C02B81019611F080E201C080E1822B66
S11328308B8308C02E813F812F5F3F4F3F832E83C0
S1132840992702C08FEF9FEFDF91CF910895FB018D
S1132850238120FF12C026FD10C08F3F3FEF930756
S113286061F082832F7D2064238326813781215068
S1132870310937832683992708958FEF9FEF0895B1
S1072880F894FFCFF6
S11328840A0049490024F40025632563256343258C
S1132894642025632025352E3266202563202825CF
S11328A4352E326656202025352E326641290043C2
S11328B448414E4E454C2025647C204D4F44453AB6
S11328C420256320204C564C3A2025352E32662090
S11328D42563004E45573A204D4F44452025632037
S11328E47C204C4556454C2025352E3266202563E4
S11328F40041524520594F5520535552453F002815
S113290425632959455320202020202020202020DD
S11329142020282563294E4F0053544F50204C49FE
S113292453543B00256400534554204D4F44450003
S1132934202825642C256429202563002028256467
S11329442920256300534554204C4556454C00200A
S11329542825642C256429205B25642C25645D00CA
S1132964202825642C256429205B25645D00202807
S1132974256429205B25645D00534554204C495348
S11329845400202825642C256429005354415254AE
S1132994204C495354002535730053544152540078
S10D29A453544F50204C4953540083
S9030000FC
