S0150000436F6E7374616E74506F7765722E73726563B8
S11300000C94BB000C9420050C947E050C94D80031
S11300100C94D8000C94D8000C94D8000C94D800FC
S11300200C94D8000C94D8000C94D8000C94D800EC
S11300300C94D8000C94D8000C9401030C94D800B0
S11300400C94D8000C94D8000C949D020C94D80005
S11300500C94D8000C94D8000C94D8000C94D800BC
S11300600C94D8000C94D8006E616E00696E660022
S113007000407A10F35A00A0724E18090010A5D45B
S1130080E80000E87648170000E40B54020000CAB8
S11300909A3B000000E1F5050000809698000000FE
S11300A040420F000000A08601000000102700005D
S11300B00000E803000000006400000000000A00E3
S11300C0000000000100000000002C76D888DC67E6
S11300D04F0823DFC1DFAE59E1B1B796E5E3E4533E
S11300E0C63AE651997696E8E6C28426EB898C9B5B
S11300F062ED407C6FFCEFBC9C9F40F2BAA56FA5FB
S1130100F490055A2AF75C936B6CF9676DC11BFC7C
S1130110E0E40D47FEF520E6B500D0ED902E030097
S1130120943577050080841E080000204E0A0000E4
S113013000C80C333333330F986E12831141EF8DA3
S11301402114893BE65516CFFEE6DB18D1844B38E3
S11301501BF77C1D901DA4BBE424203284725E2214
S11301608100C9F124ECA1E53D276364696E6F70D9
S1130170737578585B0011241FBECFEFD8E0DEBF43
S1130180CDBF12E0A0E0B1E0E4EBFBE202C00590D9
S11301900D92A837B107D9F725E0A8E7B2E001C06E
S11301A01D92A53BB207E1F70E94F5050C94D81502
S11301B00C9400002F923F924F925F926F927F9225
S11301C08F929F92AF92BF92CF92DF92EF92FF9263
S11301D00F931F93CF93DF93CDB7DEB7C854D109E4
S11301E00FB6F894DEBF0FBECDBF91E28E010E5D57
S11301F01F4FF801292F11922A95E9F780E28AA36B
S1130200FE0131967F0111929A95E9F7898325962B
S11302101FAF0EAF25972796FFAEEEAE27978091BE
S1130220B005813009F4ABC020F0823009F439C143
S11302306AC19E012D5B3F4F790100E010E0302E32
S113024029961FAF0EAF2997C801880F991F880FF1
S1130250991FFC01EF53FC4F4080518062807380F2
S1130260FC01E754FC4F80809180A280B380C801D8
S11302708E5F9E4F6C01FC018081893419F077E513
S1130280272E02C061E4262EF801EE0FFF1FE5556C
S1130290FA4F6081718180E090E00E94C60B20E0FB
S11302A030EC4FE754E40E94250B9B01AC01F601AE
S11302B08081893429F06DE37AE087E591E404C014
S11302C06DE37AE087ED9FE30E94590CF601B0815B
S11302D00F5F1F4F502FA12F2996EEADFFAD299729
S11302E0E753FC4F2081211102C049E201C040E2E2
S11302F02081211104C02091B405231511F020E2BE
S113030001C02AE23081311102C038E201C030E27A
S1130310F701C080D180F2E0EF0EF11C7F926F9262
S11303205F924F92BF92AF929F928F921F922F92A1
S11303309F938F937F936F931F92BF93AF935F931A
S11303401F924F931F922F931F923F9328E031E007
S11303503F932F93DF92CF920E942D1260E0832D62
S11303600E941007C6010E9435070FB6F894DEBF3D
S11303700FBECDBF0230110509F061CFC4C0E091BA
S1130380B405F0E0EE5FFE4F8081893419F047E553
S1130390C42E02C031E4C32EE091B405F0E0EE0FA8
S11303A0FF1FE555FA4F6081718180E090E00E9463
S11303B0C60B20E030EC4FE754E40E94250B9B0170
S11303C0AC01E091B405F0E0EE5FFE4F808189342A
S11303D029F06DE37AE087E591E404C06DE37AE007
S11303E087ED9FE3E091B405F0E0EE5FFE4FB0804F
S11303F0D090B4051F92CF920E94590C9F938F9373
S11304007F936F931F92BF928D2D90E001969F93DF
S11304108F938FE291E09F938F931F930F930E948A
S11304202D128091B3050FB6F894DEBF0FBECDBF79
S1130430893419F097E5D92E02C081E4D82E609151
S1130440B1057091B20580E090E00E94C60B20E0F7
S113045030EC4FE754E40E94250B9B01AC018091E2
S1130460B305893429F06DE37AE087E591E404C0AB
S11304706DE37AE087ED9FE3C090B3051F92DF92AE
S11304800E94590C9F938F937F936F931F92CF92E7
S113049083E591E09F938F93FF92EF920E942D1238
S11304A01FC061E771E0C8010E94B7118091AF05D8
S11304B0811102C09AE201C090E28091AF058111DE
S11304C002C080E201C08AE21F929F931F928F9321
S11304D08FE791E09F938F93FF92EF920E942D12EA
S11304E060E080E00E941007C8010E94350760E0C8
S11304F081E00E941007C7010E9435070FB6F894E7
S1130500DEBF0FBECDBFC85BDF4F0FB6F894DEBFB2
S11305100FBECDBFDF91CF911F910F91FF90EF9050
S1130520DF90CF90BF90AF909F908F907F906F900F
S11305305F904F903F902F9008951F920F920FB6A7
S11305400F9211240F931F932F933F934F935F9315
S11305506F937F938F939F93AF93BF93CF93DF93C7
S1130560EF93FF93C091B703D091B803CE010196E6
S11305709093B8038093B7030E947607C058DD4F69
S113058088838091B7039091B803FC01E058FD4F34
S1130590DF0111972C912B3319F4029720F41CC01E
S11305A087339140C8F0108209EC13E02BEC33E060
S11305B04BEA55E062E071E080E892E00E9457085F
S11305C0892B31F41092B0051092AF050E94DA0025
S11305D01092B8031092B703FF91EF91DF91CF917E
S11305E0BF91AF919F918F917F916F915F914F9147
S11305F03F912F911F910F910F900FBE0F901F905D
S113060018951F920F920FB60F9211242F923F92BA
S11306104F925F926F927F928F929F92AF92BF920E
S1130620CF92DF92EF92FF920F931F932F933F93FA
S11306304F935F936F937F938F939F93AF93BF93E6
S1130640EF93FF93CF93DF93CDB7DEB7E597DEBF8C
S1130650CDBF80910001909101018436910509F08C
S1130660C1C18091C903811104C08091CA03882348
S1130670A1F080917C0290917D02A0917E02B091C4
S11306807F020196A11DB11D80937C0290937D028F
S1130690A0937E02B0937F0208C010927C02109255
S11306A07D0210927E0210927F0278E7C72E72E0DC
S11306B0D72EEAE72E2EE2E03E2EE12CF12CEBAA17
S11306C0F701E753FC4F80815701AA0CBB1C882318
S11306D009F462C0D1013C91C701B4E03B9F800D95
S11306E0911D1124FC01EE0FFF1FEE0FFF1FED52B1
S11306F0FC4F4081518162817381452B462B472BEE
S113070049F1D6012C914081518162817381422E3D
S1130710512C612C712C4416550666067706B0F0F0
S1130720880F991F880F991FFC01E553FC4F8081A6
S11307309181A281B381F501E555FA4F91838083BC
S11307403F5FF1013083D6011C9226C02F5FF60172
S1130750208322C0FF92EF9229E931E03F932F9347
S1130760A9EAB1E0BF93AF930E942D1209EC13E004
S11307702BEC33E04BEA55E062E071E089EA91E06A
S11307800E945708D6011C92F10110820F900F901D
S11307900F900F900F900F908BA90E943F06BC0101
S11307A080E090E00E94C60B20E030EC4FE754E478
S11307B00E94250B20E030E040E751E40E94590CF0
S11307C08701000F111F000F111FF801E754FC4FA0
S11307D06083718382839383D701AE5FBE4F8C9114
S11307E098012F533C4F3DAB2CAB803559F5D501C7
S11307F0A555BA4F6D917C91408051806280738081
S113080080E090E00E94C60B20E030EC4FE754E417
S11308100E94250B4B015C01A30192016DE37AE078
S113082087E591E40E94250B9B01AC01C501B4014D
S11308300E94590CACA9BDA96D937D938D939C9393
S113084013971BC0F501E555FA4F6081718180E073
S113085090E00E94C60B20E030EC4FE754E40E9485
S1130860250B2DE33AE047ED5FE30E94590CECA918
S1130870FDA96083718382839383F801EF53FC4F56
S1130880608171818281938120E030E040E450E412
S11308900E94590C20E030E040EA50E40E94250B0D
S11308A020E030EF4FE755E40E94590C0E94970B6B
S11308B00E94C60B4B015C0120E030EF4FE755E48A
S11308C00E94540C18162CF0C501B4010E94970B19
S11308D002C06FEF7FE08BA90E945A06FFEFEF1A68
S11308E0FF0A2FEFC21AD20A3FEF231A330A82E01B
S11308F0E816F10409F0E3CE82E00E943F069093EB
S1130900B2058093B1058E010F5F1F4F82E3D801BA
S11309101D928A95E9F7E091AD05F091AE0520911D
S1130920AB053091AC05609003017090020180909A
S1130930C5039090C603A090C703B090C803C090AD
S1130940C103D090C203E090C303F090C40340916C
S1130950BD035091BE036091BF037091C0038091A9
S1130960B9039091BA03A091BB03B091BC03FF9368
S1130970EF933F932F931F926F921F927F92BF9298
S1130980AF929F928F92FF92EF92DF92CF927F93DA
S11309906F935F934F93BF93AF939F938F93809184
S11309A07F028F9380917E028F9380917D028F933B
S11309B080917C028F9388EB91E09F938F931F9398
S11309C00F930E942D120FB6F894DEBF0FBECDBF59
S11309D0C8010E947D070E94DA0010920101109262
S11309E0000105C001969093010180930001E596F2
S11309F00FB6F894DEBF0FBECDBFDF91CF91FF914C
S1130A00EF91BF91AF919F918F917F916F915F9182
S1130A104F913F912F911F910F91FF90EF90DF9095
S1130A20CF90BF90AF909F908F907F906F905F908A
S1130A304F903F902F900F900FBE0F901F901895DE
S1130A401F920F920FB60F9211240F931F932F939F
S1130A503F934F935F936F937F938F939F93AF9342
S1130A60BF93EF93FF938091C903811104C08091D8
S1130A70CA03882369F009EC13E02BEC33E04BEA5A
S1130A8055E062E071E081EE91E00E94570821C0D8
S1130A908091B005813061F018F0823099F019C06E
S1130AA09091B40581E0911180E08093B40511C068
S1130AB08091B305893411F089E401C080E5809305
S1130AC0B30507C09091AF0581E0911180E0809358
S1130AD0AF050E94DA00FF91EF91BF91AF919F9112
S1130AE08F917F916F915F914F913F912F911F91C2
S1130AF00F910F900FBE0F901F9018951F920F9299
S1130B000FB60F9211240F931F932F933F934F937C
S1130B105F936F937F938F939F93AF93BF93EF9361
S1130B20FF938091C903811104C08091CA03882373
S1130B3069F009EC13E02BEC33E04BEA55E062E09A
S1130B4071E081EE91E00E94570826C08091B005C3
S1130B508F5F8093B0058091B0058330E8F0809179
S1130B60AF058823A9F0E091B405F0E08091B305C6
S1130B70EE5FFE4F8083E091B405F0E08091B10513
S1130B809091B205EE0FFF1FE555FA4F91838083D4
S1130B901092B0051092AF050E94DA00FF91EF9118
S1130BA0BF91AF919F918F917F916F915F914F9181
S1130BB03F912F911F910F910F900FBE0F901F9097
S1130BC0189584B5826084BD85B5836085BD89EF41
S1130BD087BDEEE6F0E080818260808308958AE03C
S1130BE08093690083E08DBB089578943B9A0E94BA
S1130BF04F070E94EF050E94310660EA76E881E023
S1130C0090E00E9471060E94E0060E94E105E091D6
S1130C10B405F0E0EE5FFE4F80818093B305E09170
S1130C20B405F0E0EE0FFF1FE555FA4F8081918186
S1130C309093B2058093B105439A2FEF84E39CE02F
S1130C40215080409040E1F700C0000043982FEF0E
S1130C5084E39CE0215080409040E1F700C0000014
S1130C60EBCFECE7F0E0808180648083EAE7F0E09A
S1130C708081866080838081806C808308959091D8
S1130C807C00907F90937C0090917C008770982BDF
S1130C9090937C0080917A00806480937A008091A4
S1130CA07A0086FDFCCF809178002091790090E055
S1130CB0922B0895CF93DF93EB01282F217030E01E
S1130CC0C901880F991F806C0E9487068D2F8F7031
S1130CD00E94AC068C2F0E94AC06DF91CF910C943D
S1130CE0A8069B01AC011092B90060E072E18AE7AA
S1130CF090E00E946710DA01C9014097A109B10987
S1130D00B695A795979587958093B800089594EA2A
S1130D109093BC009091BC0097FFFCCF9091B900D8
S1130D20987F983091F48093BB0084E88093BC0052
S1130D308091BC0087FFFCCF2091B900287F81E01F
S1130D4090E0283121F080E0089580E090E008955B
S1130D5084E98093BC0008958093BB0084E8809369
S1130D60BC008091BC0087FFFCCF9091B900987FB4
S1130D7021E030E0983211F020E030E0C90108951C
S1130D80299A8FEC97E00197F1F700C000002998A9
S1130D900895289895B1937095B995B1807F8695FB
S1130DA08695982B95B90C94C006CF93C82F807F55
S1130DB00E94C9068C2F8295807FCF910C94C9061E
S1130DC084B18F6384B98FE39CE90197F1F700C084
S1130DD0000080E30E94C90687E090E20197F1F7E2
S1130DE000C0000080E30E94C90687EC90E00197F0
S1130DF0F1F700C0000080E30E94C90680E20E946F
S1130E00C90688E20E94D5068CE00E94D50681E0DE
S1130E100E94D50686E00E94D50680E80C94D5068B
S1130E208295880F880F807C6068862B0C94D50689
S1130E30CF93C82F289A85B1837085B995B18C2F2B
S1130E40807F86958695892B85B90E94C00685B1D9
S1130E50837085B925B1CF7034E0C39FC0011124DC
S1130E60822B85B9CF910C94C0060F931F93CF9317
S1130E708C01C0E0F801EC0FF11D8081882321F082
S1130E80CF5F0E941807F6CFC13228F480E20E9497
S1130E901807CF5FF9CFCF911F910F9108956091FB
S1130EA0040170910501809106019091070120E0F1
S1130EB038E542E050E00E94671021503109309338
S1130EC0C5002093C400E1ECF0E080818861808358
S1130ED08081806880838EE08093C2000895909121
S1130EE0C00095FFFCCF8093C60008958091C00098
S1130EF087FFFCCF8091C60008950F931F93CF9373
S1130F008C01C0E0F801EC0FF11D8081882321F0F1
S1130F10CF5F0E946F07F6CFCF911F910F91089575
S1130F2020E030E0FC01E20FF31F108211821282F4
S1130F3013821482158216821782108611861286F5
S1130F4013861486158616861786205F3F4F203E2B
S1130F5041E0340739F708952F923F924F925F9200
S1130F606F927F928F929F92AF92BF92CF92DF92B5
S1130F70EF92FF920F931F93CF93DF93CDB7DEB71A
S1130F802C970FB6F894DEBF0FBECDBF7C016B016A
S1130F903C872B87612C712CCE0101962C0106967F
S1130FA09A8789871801220C331C420D531D1A019C
S1130FB0220C331C220C331CEC14FD0408F05CC01E
S1130FC020EE621621E0720609F456C06CE270E06D
S1130FD0C7010E94AC115601009721F08C159D05A4
S1130FE008F45C0145018E189F08A401B701C201F1
S1130FF00E94CC11F201E80DF91D10829A859F938D
S113100029852F938CEE91E09F938F935F924F925B
S11310100E944F120F900F900F900F900F900F900F
S1131020019739F58F8198850115110529F48115EA
S113103024E0920738F01DC00130110519F4181688
S11310401906BCF42B853C85260D371D092E000C92
S1131050AA0BBB0BF901E20DF31D80839183A283DC
S1131060B38375018FEFE81AF80A90E1690E711CD9
S1131070A3CF8FEF9FEF02C080E090E02C960FB6D5
S1131080F894DEBF0FBECDBFDF91CF911F910F91BA
S1131090FF90EF90DF90CF90BF90AF909F908F9094
S11310A07F906F905F904F903F902F9008952F9274
S11310B03F924F925F926F927F928F929F92AF92E4
S11310C0BF92CF92DF92EF92FF920F931F93CF9331
S11310D0DF93CDB7DEB72C970FB6F894DEBF0FBE03
S11310E0CDBFFC0101900020E9F73297A081AB331A
S11310F009F08FC2180179015A012B011082FC01F9
S113110001900020E9F79F012250310949013C0177
S113111063013FEF631A730AF601808190E00E9435
S113112098118C01892BA1F7C814D90468F4F4012F
S1131130808190E00E949811892B31F0F1E08F1AA0
S11311409108F4011182F0CF48E050E06FEE71E0B5
S1131150C6010E94BE114C01892B09F093C0F8E02E
S1131160CF0ED11C8FEF9FEF98878F839A8389834B
S1131170CE0109969F938F937E012BE0E20EF11C22
S1131180FF92EF9208973C019F938F938E01095F22
S11311901F4F1F930F9388EF91E09F938F93DF92DC
S11311A0CF920E944F120FB6F894DEBF0FBECDBF90
S11311B08430910551F1FF92EF927F926F921F93C9
S11311C00F9389E092E09F938F93DF92CF920E94D6
S11311D04F120FB6F894DEBF0FBECDBF833091051A
S11311E091F0FF92EF921F930F9387E192E09F9308
S11311F08F93DF92CF920E944F120FB6F894DEBF06
S11312000FBECDBF02C02B8529870297039708F034
S113121073C18F8198859C01215031092230310599
S113122008F06AC14B85493419F0403509F064C1AE
S1131230F201E20FF31F4083FC01E150F048EE0F8E
S1131240FF1FEA0DFB1D1182108249815A81BA01E8
S1131250615071096230710508F051C18985893482
S113126019F0803509F04BC1F201E60FF71F8083B6
S113127041505048440F551FF501E40FF51F1182EA
S113128010823DC149E050E062E272E0C6010E9472
S1131290BE114C01892B09F08FC0F9E0CF0ED11C8F
S11312A08FEF9FEF9C878B879A878987CE01019662
S11312B09F938F937E0127E0E20EF11CFF92EF9241
S11312C03E0139E0630E711C7F926F928E01055FBF
S11312D01F4F1F930F938CE292E09F938F93DF92A3
S11312E0CF920E944F120FB6F894DEBF0FBECDBF4F
S11312F08430910561F1FF92EF927F926F921F9378
S11313000F938DE392E09F938F93DF92CF920E948D
S11313104F120FB6F894DEBF0FBECDBF83309105D8
S113132091F0FF92EF921F930F938BE492E09F93BF
S11313308F93DF92CF920E944F120FB6F894DEBFC4
S11313400FBECDBF04C02F8138853A83298302970D
S1131350039708F0D1C04F8158854115F4E05F0729
S113136008F0CAC029813A81211584E0380708F0C1
S1131370C3C08B859C85BC016150710962307105C5
S113138008F0BAC0FC01E150F048EE0FFF1FEA0D6F
S1131390FB1D5183408349855A85CA0101970297F1
S11313A008F0ADC041505048440F551FF501E40FFB
S11313B0F51F31832083A3C048E050E066E572E066
S11313C0C6010E94BE114C01892B09F09AC0860106
S11313D0085F1F4F8FEF9FEF9A8389836BE570E05F
S11313E0C8010E94AC11009709F486C05C01EFEFBC
S11313F0AE1ABE0A6BE570E0C5010E94AC116C0127
S11314006DE570E0C8010E94E6113C01C114D104ED
S113141009F472C0009709F46FC0C816D90608F021
S11314206BC0C7010E949007CE0101969F938F93D2
S113143006969F938F938FE592E09F938F931F93CC
S11314400F930E944F1201970FB6F894DEBF0FBEA0
S1131450CDBF029708F050C04F81588541505109C3
S11314604230510508F048C0260131E0431A5108C2
S113147000E010E09701B201C5010E94AC07282EDC
S1131480382E89819A81AC0141505109423051056D
S113149060F42F8138858217930739F09701B201E0
S11314A0C5010E94AC07382E320C8FEFC81AD80A37
S11314B04F8158854150510901E010E09701B30173
S11314C0C6010E94AC07380E89819A81AC01415053
S11314D051094230510558F42F81388582179307FA
S11314E031F09701B301C6010E94AC07380E3320D6
S11314F031F0C7010E94900788248A94982C8401B3
S11315008AC068E270E0C6010E94AC114C01892BCC
S113151009F47FC0FE0131967F01FF93EF9388E6C3
S113152092E09F938F93DF92CF920E944F120F907D
S11315300F900F900F900F900F90019709F069C0D2
S113154045E050E06CE672E0C7010E94BE11892BB1
S113155051F044E050E062E772E0C7010E94BE111E
S1131560892B09F056C01A86198618861F82CE0167
S113157007969F938F9302969F938F938FE592E0A4
S11315809F938F939F928F920E944F126C0145E01C
S113159050E06CE672E0C7010E94BE1161E00FB634
S11315A0F894DEBF0FBECDBF892B09F060E0C60101
S11315B00197029770F589859A859C01215031091C
S11315C02230310530F5F101E20FF31F6083FC0195
S11315D0E150F048EE0FFF1FEA0DFB1D118210824F
S11315E032E0C316D104B9F44F815885CA0101977A
S11315F08230910580F4F101E80FF91F60834150B6
S11316005048440F551FF501E40FF51F1182108255
S113161002C00FEF1FEFC8012C960FB6F894DEBF7F
S11316200FBECDBFDF91CF911F910F91FF90EF902F
S1131630DF90CF90BF90AF909F908F907F906F90EE
S11316405F904F903F902F9008950E94390B0C9417
S11316501A0C0E94130C58F00E940C0C40F029F450
S11316605F3F29F00C94030C51110C944E0C0C9414
S1131670090C0E942B0C68F39923B1F3552391F3C1
S1131680951B550BBB27AA2762177307840738F0ED
S11316909F5F5F4F220F331F441FAA1FA9F335D04A
S11316A00E2E3AF0E0E832D091505040E695001CFE
S11316B0CAF72BD0FE2F29D0660F771F881FBB1FB8
S11316C0261737074807AB07B0E809F0BB0B802D96
S11316D0BF01FF2793585F4F3AF09E3F510578F0C2
S11316E00C94030C0C944E0C5F3FE4F3983ED4F33B
S11316F0869577956795B795F7959F5FC9F7880F96
S1131700911D9695879597F90895E1E0660F771FE7
S1131710881FBB1F621773078407BA0720F0621B78
S1131720730B840BBA0BEE1F88F7E09508950E94A3
S1131730330C88F09F5798F0B92F9927B751B0F020
S1131740E1F0660F771F881F991F1AF0BA95C9F741
S113175014C0B13091F00E944D0CB1E008950C9486
S11317604D0C672F782F8827B85F39F0B93FCCF339
S1131770869577956795B395D9F73EF490958095BE
S1131780709561957F4F8F4F9F4F0895E89409C0DE
S113179097FB3EF490958095709561957F4F8F4FA0
S11317A09F4F9923A9F0F92F96E9BB279395F695B6
S11317B0879577956795B795F111F8CFFAF4BB0F34
S11317C011F460FF1BC06F5F7F4F8F4F9F4F16C098
S11317D0882311F096E911C0772321F09EE8872F22
S11317E0762F05C0662371F096E8862F70E060E0DE
S11317F02AF09A95660F771F881FDAF7880F969557
S1131800879597F9089597F99F6780E870E060E0FD
S113181008959FEF80EC089500240A941616170685
S113182018060906089500240A94121613061406CD
S113183005060895092E0394000C11F4882352F030
S1131840BB0F40F4BF2B11F460FF04C06F5F7F4FE8
S11318508F4F9F4F089557FD9058440F551F59F0CF
S11318605F3F71F04795880F97FB991F61F09F3F89
S113187079F087950895121613061406551FF2CFB2
S11318804695F1DF08C0161617061806991FF1CF02
S113189086957105610508940895E894BB27662729
S11318A07727CB0197F908950E94C60C08F48FEFAF
S11318B008950E946C0C0C941A0C0E940C0C38F0C5
S11318C00E94130C20F0952311F00C94030C0C943B
S11318D0090C11240C944E0C0E942B0C70F3959F50
S11318E0C1F3950F50E0551F629FF001729FBB2713
S11318F0F00DB11D639FAA27F00DB11DAA1F649FAF
S11319006627B00DA11D661F829F2227B00DA11D61
S1131910621F739FB00DA11D621F839FA00D611DE7
S1131920221F749F3327A00D611D231F849F600D08
S1131930211D822F762F6A2F11249F5750409AF031
S1131940F1F088234AF0EE0FFF1FBB1F661F771FBD
S1131950881F91505040A9F79E3F510580F00C9488
S1131960030C0C944E0C5F3FE4F3983ED4F386953D
S113197077956795B795F795E7959F5FC1F7FE2B28
S1131980880F911D9695879597F90895990F0008EA
S1131990550FAA0BE0E8FEEF16161706E807F9073D
S11319A0C0F012161306E407F50798F0621B730BD8
S11319B0840B950B39F40A2661F0232B242B252B59
S11319C021F408950A2609F4A140A6958FEF811DFC
S11319D0811D0895A0E1B0E0E0EFFCE00C948910D3
S11319E07C011B016A01FC0117821682838181FF3D
S11319F044C39E012F5F3F4F3901F7019381F101E9
S1131A0093FD859193FF81911F01882309F431C3CC
S1131A10853239F493FD859193FF81911F018532BD
S1131A2039F4B70190E00E94F11156016501E5CF48
S1131A3010E0512C912CFFE1F915D8F08B3279F09C
S1131A4038F4803279F08332A1F4F92DF0612EC09C
S1131A508D3261F0803369F4292D21602DC0392D38
S1131A603260932E892D8460982E2AC0E92DE86077
S1131A7015C097FC2DC020ED280F2A3088F496FE5F
S1131A8006C03AE0139F200D1124122F19C08AE0DA
S1131A90589E200D1124522EE92DE0629E2E10C076
S1131AA08E3231F496FCE5C2F92DF0649F2E08C005
S1131AB08C3621F4292D2068922E02C0883641F4F8
S1131AC0F10193FD859193FF81911F018111B3CFA2
S1131AD09BEB980F933020F4992D9061805E07C0A2
S1131AE09BE9980F933008F066C1992D9F7E96FF6D
S1131AF016E09F73992E853619F49064992E08C0C8
S1131B00863621F4392F3068932E02C011111150FA
S1131B1097FE07C01C3350F444244394410E27E03D
S1131B200BC0183038F027E017E005C027E09CE32D
S1131B30492E02C0212F412C560184E0A80EB11C6D
S1131B40F6016081718182819381042DA3010E9439
S1131B50C0106C01F981FC87F0FF02C0F3FF06C0DE
S1131B6091FC06C092FE06C000E205C00DE203C06F
S1131B700BE201C000E08C858C7019F001115AC28F
S1131B809BC297FE10C04C0CFC85F4FF04C08A81F4
S1131B90813309F44A94141474F528E0241578F573
S1131BA088E0482E2CC096FC2AC0812F90E08C152A
S1131BB09D059CF03CEFC3163FEFD30674F0892DCE
S1131BC08068982E0AC0E2E0F0E0EC0FFD1FE10F00
S1131BD0F11D8081803319F411501111F4CF97FE57
S1131BE00EC044244394410E812F90E0C816D906B8
S1131BF02CF41C1904C04424439401C010E097FE43
S1131C0006C01C141D0434F4C601019605C085E009
S1131C1090E002C081E090E001110196112331F0BF
S1131C20212F30E02F5F3F4F820F931F252D30E08F
S1131C308217930714F4581A01C0512C892D897006
S1131C4049F4552039F0B70180E290E00E94F11187
S1131C505A94F7CF002329F0B701802F90E00E9417
S1131C60F11193FC09C0552039F0B70180E390E0ED
S1131C700E94F1115A94F7CF97FE4CC04601D7FE4B
S1131C8002C0812C912CC60188199909F301E80F2F
S1131C90F91FFE87ED87960124193109388B2F87A8
S1131CA0012F10E01195019511093FEF831693065A
S1131CB029F4B7018EE290E00E94F111C814D9040E
S1131CC04CF08F8598898815990524F4ED85FE8557
S1131CD0818101C080E3F1E08F1A91082D853E8552
S1131CE02F5F3F4F3E872D87801691062CF0B7015A
S1131CF090E00E94F111D9CFC814D90441F49A811B
S1131D00963320F4953319F43C8534FF81E3B7010D
S1131D1090E04EC08A81813319F09C859F7E9C8718
S1131D20B70190E00E94F111111105C094FC18C094
S1131D3085E690E017C0B7018EE290E00E94F111B1
S1131D401E5F82E001E0080FF301E80FF11D8081BE
S1131D50B70190E00E94F111802F0113F3CFE6CF79
S1131D6085E490E0B7010E94F111D7FC06C0C114CC
S1131D70D10441F4EC85E4FF05C0D194C194D108A9
S1131D808DE201C08BE2B70190E00E94F11180E383
S1131D902AE0C216D1042CF08F5FFAE0CF1AD108E2
S1131DA0F7CFB70190E00E94F111B701C601C096C8
S1131DB00E94F11154C1833631F0833779F08335B1
S1131DC009F056C020C0560132E0A30EB11CF60142
S1131DD08081898301E010E0630112C05601F2E0C2
S1131DE0AF0EB11CF601C080D18096FE03C0612FF6
S1131DF070E002C06FEF7FEFC6010E94DB118C011F
S1131E00F92DFF7714C0560122E0A20EB11CF60191
S1131E10C080D18096FE03C0612F70E002C06FEFD6
S1131E207FEFC6010E94A1118C01F92DF0689F2E4D
S1131E30F3FD1AC0852D90E008171907A8F4B7011F
S1131E4080E290E00E94F1115A94F4CFF60197FCDD
S1131E50859197FE81916F01B70190E00E94F11185
S1131E6051105A94015011090115110579F7F7C061
S1131E70843611F0893661F5560197FE09C024E0D5
S1131E80A20EB11CF60160817181828193810AC026
S1131E90F2E0AF0EB11CF60160817181072E000CD7
S1131EA0880B990BF92DFF769F2E97FF09C090950B
S1131EB08095709561957F4F8F4F9F4FF0689F2E4F
S1131EC02AE030E0A3010E946812C82EC6183FC061
S1131ED0092D853721F40F7E2AE030E01DC0097FEB
S1131EE08F3691F018F4883559F0C3C0803719F053
S1131EF0883711F0BEC0006104FF09C0046007C048
S1131F0094FE08C0066006C028E030E005C020E169
S1131F1030E002C020E132E0560107FF09C084E04E
S1131F20A80EB11CF601608171818281938108C081
S1131F30F2E0AF0EB11CF6016081718180E090E0A7
S1131F40A3010E946812C82EC6180F77902E96FE21
S1131F500BC0092D0E7FC11650F494FE0AC092FCEA
S1131F6008C0092D0E7E05C0DC2C092D03C0DC2C15
S1131F7001C0D12E04FF0DC0FE01EC0DF11D8081C6
S1131F80803311F4097E09C002FF06C0D394D394B0
S1131F9004C0802F867809F0D39403FD11C000FF9C
S1131FA006C01C2DD51480F4150D1D190DC0D514B3
S1131FB058F4B70180E290E00E94F111D394F7CF76
S1131FC0D51410F45D1801C0512C04FF10C0B701E2
S1131FD080E390E00E94F11102FF17C001FD03C0ED
S1131FE088E790E002C088E590E0B7010CC0802F3C
S1131FF0867859F001FF02C08BE201C080E207FD40
S11320008DE2B70190E00E94F111C11638F4B701D6
S113201080E390E00E94F1111150F7CFCA94F301CC
S1132020EC0DF11D8081B70190E00E94F111C11007
S1132030F5CF15C0F4E0F51560F584E0581A93FE69
S11320401FC0011127C02C8523FF2AC008E610E019
S1132050392D3071932EF8018491811124C05520BB
S113206009F4E4CCB70180E290E00E94F1115A94A3
S1132070F6CFF7018681978126C08FEF9FEF23C0AB
S1132080B70180E290E00E94F1115A945110F8CF08
S1132090D8CF512CB701802F90E00E94F111D3CFFB
S11320A00CE610E0D5CF91108052B70190E00E9469
S11320B0F1110F5F1F4FCFCF23E0251510F483E0FC
S11320C0BDCF512CC0CF6096E2E10C94A510A1E2E3
S11320D01A2EAA1BBB1BFD010DC0AA1FBB1FEE1F9E
S11320E0FF1FA217B307E407F50720F0A21BB30BE9
S11320F0E40BF50B661F771F881F991F1A9469F765
S113210060957095809590959B01AC01BD01CF01C0
S113211008952F923F924F925F926F927F928F9287
S11321209F92AF92BF92CF92DF92EF92FF920F9362
S11321301F93CF93DF93CDB7DEB7CA1BDB0B0FB66C
S1132140F894DEBF0FBECDBF09942A883988488829
S11321505F846E847D848C849B84AA84B984C884BF
S1132160DF80EE80FD800C811B81AA81B981CE0FB6
S1132170D11D0FB6F894DEBF0FBECDBFED0108959B
S1132180283008F027E03327DA01990F311D87FD45
S1132190916000966105710539F432602E5F3D93BC
S11321A030E32A95E1F708959F3F30F080387105B8
S11321B0610509F03C5F3C5F3D93913008F0806815
S11321C0911DDF93CF931F930F93FF92EF92192FDB
S11321D0987F9695E92F96959695E90FFF27E653F4
S11321E0FF4F99273327EE24FF24A701E701059029
S11321F00894079428F4360FE71EF81E491F511D52
S1132200660F771F881F991F0694A1F705900794FE
S113221028F4E70EF81E491F561FC11D770F881FAB
S1132220991F661F0694A1F70590079428F4F80EE9
S1132230491F561FC71FD11D880F991F661F771F7F
S11322400694A1F70590079420F4490F561FC71F61
S1132250D81F990F661F771F881F0694A9F78491CA
S11322601095177041F0D695C79557954795F794F3
S1132270E7941A95C1F7E0E7F0E06894159015919A
S113228035916591959105907FE27395E118F10A76
S1132290430B560BC90BD009C0F7E10CF11E431FC9
S11322A0561FC91FD01D7EF4703311F48A95E6CFF2
S11322B0E894015030F0080F0AF40027021708F4DC
S11322C0202F2395022F7A3328F079E37D932A95E2
S11322D0E9F710C07D932A9589F60694979567953A
S11322E0379517951794E118F10A430B560BC90B50
S11322F0D00998F023957E9173957A3308F070E3B2
S11323007C932013B8F77E9170617D9330F08395B0
S113231071E37D9370E32A95E1F71124EF90FF9028
S11323200F911F91CF91DF91992787FD9095089583
S113233091110C947315803219F089508550C8F7A7
S11323400895FC010590615070400110D8F7809504
S113235090958E0F9F1F0895FC018191861721F09F
S11323608823D9F7992708953197CF010895FB0160
S1132370DC0101900D920020E1F70895FB01DC01DE
S11323804150504030F08D910190801919F4002093
S1132390B9F7881B990B0895FB01DC0141505040AB
S11323A048F001900D920020C9F701C01D924150E0
S11323B05040E0F70895FC01615070400190011015
S11323C0D8F7809590958E0F9F1F0895FC0181E0AA
S11323D090E00190061609F4CF010020D1F701978F
S11323E008950F931F93CF93DF93FB01238121FD66
S11323F003C08FEF9FEF2CC022FF16C04681578188
S1132400248135814217530744F4A081B1819D0191
S11324102F5F3F4F318320838C93268137812F5F39
S11324203F4F3783268314C08B01EC01FB010084EA
S1132430F185E02D0995892BE1F6D80116968D9149
S11324409C911797019617969C938E931697CE019D
S1132450DF91CF911F910F910895AEE0B0E0E3E3D7
S1132460F2E10C9497100D891E8986E08C831A83FF
S113247009838FEF9FE79E838D83AE01475E5F4F95
S11324806F89788DCE0101960E94EA0CEF81F88560
S1132490E00FF11F10822E96E4E00C94B310AEE02E
S11324A0B0E0E5E5F2E10C94991085E08C838B892A
S11324B09C899A838983AE01495E5F4F6D897E89C9
S11324C0CE0101960E9462142E96E2E00C94B5109F
S11324D0FA01AA27283051F1203181F1E8946F9351
S11324E06E7F6E5F7F4F8F4F9F4FAF4FB1E03ED0F7
S11324F0B4E03CD0670F781F891F9A1FA11D680F95
S1132500791F8A1F911DA11D6A0F711D811D911DC7
S1132510A11D20D009F468943F912AE0269F11243C
S11325203019305D3193DEF6CF010895462F4770A0
S1132530405D4193B3E00FD0C9F7F6CF462F4F70FB
S1132540405D4A3318F0495D31FD4052419302D059
S1132550A9F7EACFB4E0A6959795879577956795FF
S1132560BA95C9F700976105710508959B01AC01FF
S11325700A2E06945795479537952795BA95C9F726
S1132580620F731F841F951FA01D089520FD09C0AD
S1132590FC0123FD05C022FF02C0738362835183C3
S11325A04083089544FD17C046FD17C0AB01BC012C
S11325B0DA01FB01AA0FBB1FEE1FFF1F1094D1F716
S11325C04A0F5B1F6E1F7F1FCB01BA01660F771F77
S11325D0881F991F09C033E001C034E0660F771FDC
S11325E0881F991F3150D1F7620F711D811D911DF4
S11325F008950F931F93CF93DF938C01C8010E941A
S11326008115EC0197FD08C00E949811892BB1F740
S1132610B801CE010E94BF15CE01DF91CF911F9169
S11326200F9108958F929F92AF92BF92EF92FF9273
S11326300F931F93CF93DF938C01D62F7A01B22E81
S11326400E9481159C0133272B32310531F02D3244
S1132650310561F48B2D8068B82ED15011F480E0DF
S113266068C0C8010E94811597FDF9CFCB2DCD7F9D
S11326702B2D207309F58033F9F4AA24AA94AD0E06
S113268009F443C0C8010E94811597FD3EC09C0116
S11326902F7D33272835310549F4C264D250A9F17E
S11326A0C8010E94811597FF07C02FC0B6FE02C063
S11326B0C26001C0C261DA2D812C912C540120ED3D
S11326C0280F283080F0C4FF04C0B8010E94BF1551
S11326D019C02A3040F0C6FFF8CF2F7D3FEE320FED
S11326E0363098F727504C2FC501B4010E94D212FE
S11326F04B015C01C260D15059F0C8010E948115A0
S113270097FFDDCFC1FD04C0AACF812C912C5401C9
S1132710C7FF08C0B094A09490948094811C911C2D
S1132720A11CB11C2C2FB501A401C7010E94C61223
S113273081E0DF91CF911F910F91FF90EF90BF90B7
S1132740AF909F908F900895A0E2B0E0EAEAF3E1A1
S11327500C948C105C01962E7A01F9018E010F5FA6
S11327601F4F680180E2D8011D928A95E9F7D501CF
S113277013968C9080E090E0612C712C30E061E045
S113278070E083FC259183FE21918F01522E21114B
S113279003C080E090E092C02E3511F4009751F10F
S11327A0432F50E0481759073CF42D3559F12D3289
S11327B019F4772009F103C0772009F46AC0452D84
S11327C0469546954695D601A40FB11D452D4770F3
S11327D08B0102C0000F111F4A95E2F7A8015C911A
S11327E0452B4C93651459F0561410F45394E7CFC9
S11327F05A94E5CF31E004C07724739401C0712C5E
S11328000196BFCF772019F08E8180628E833111BB
S113281003C08824839417C0F6019E012F5D3F4FA7
S11328208081809581932E173F07D1F7F2CFE11471
S1132830F10429F0D7018C93F70131967F019A9422
S1132840812C9920F9F0C5010E94811597FD18C0CB
S1132850FC01FF2723E0F595E7952A95E1F7EC0DB8
S1132860FD1D208130E0AC014770552702C035952D
S113287027954A95E2F720FDDACFB5010E94BF15EE
S1132880811087CFE114F10411F0D7011C92C80123
S113289015C0422F469546954695D601A40FB11D05
S11328A0422F47708B0102C0000F111F4A95E2F7B7
S11328B0A8015C91452B4C93622EA2CFA096EFE029
S11328C00C94A810A0E0B0E0E8E6F4E10C948C10BD
S11328D06C01EB015A01FC0117821682512CF6019E
S11328E0E380FE01E3FC8591E3FE8191182FEF0163
S11328F0882309F4EEC090E00E949811892B21F0FE
S1132900C6010E94F912EBCF153241F4FE01E3FC3B
S11329101591E3FE1191EF01153281F4C6010E9475
S1132920811597FDD4C0412F50E09C013327241713
S11329303507A9F2B6010E94BF15CBC01A3239F48B
S1132940E3FC1591E3FE1191EF0101E001C000E009
S1132950F12C20ED210F2A3080F402606F2D70E0FD
S113296080E090E040E20E94D212F62EFE01E3FCE9
S11329701591E3FE1191EF01ECCF01FF03C0F110BB
S113298003C0A7C0FF24FA94183619F01C3651F07E
S113299010C0FE01E3FC1591E3FE1191EF0118361E
S11329A041F408600460FE01E3FC1591E3FE11911B
S11329B0EF01112309F48DC0612F70E08AE691E0E4
S11329C00E947615892B09F484C000FD07C0F50127
S11329D080809180C50102965C0102C0812C912CFB
S11329E01E3651F4F6014681578160E070E0202FD5
S11329F0C4010E94C61273CF1336A9F401FD02C0AC
S1132A00FF24F394C6010E94811597FD60C08114D0
S1132A10910429F0F4018083C40101964C01FA94D5
S1132A20F110F0CF50C01B3559F49E01A4016F2D55
S1132A30C6010E94A413EC01892B09F044C03EC0D6
S1132A40C6010E94F91297FD42C01F3661F128F4B5
S1132A50143639F1193651F128C0133771F015378E
S1132A6001F123C08114910429F0F4016082C401AE
S1132A7001964C01FA94FF2071F0C6010E94811561
S1132A803C0197FD08C00E949811892B59F3B601A7
S1132A90C3010E94BF1581149104A9F0F4011082AE
S1132AA012C0006203C0006101C00064202FA401B1
S1132AB06F2DC6010E941213811105C0F601838196
S1132AC0807329F406C000FD0ACF539408CF552023
S1132AD019F0852D90E002C08FEF9FEFCDB7DEB7E0
S1132AE0EFE00C94A810992788270895FC0105901D
S1132AF0061621F00020D9F7C00108953197CF01BF
S1132B000895CF93DF93EC012B8120FF33C026FF80
S1132B100AC02F7B2B838E819F8101969F838E8396
S1132B208A8190E029C022FF0FC0E881F981808169
S1132B30082E000C990B009719F420622B831AC0FD
S1132B403196F983E8830EC0EA85FB85099597FFE2
S1132B5009C02B81019611F080E201C080E1822B33
S1132B608B8308C02E813F812F5F3F4F3F832E838D
S1132B70992702C08FEF9FEFDF91CF910895FB015A
S1132B80238120FF12C026FD10C08F3F3FEF930723
S1132B9061F082832F7D2064238326813781215035
S1132BA0310937832683992708958FEF9FEF08957E
S1072BB0F894FFCFC3
S1132BB46400494900127A0025632563256343258B
S1132BC4642025632025352E32662025632028259C
S1132BD4352E326656202025352E3266412900438F
S1132BE448414E4E454C2025647C204D4F44453A83
S1132BF420256320204C564C3A2025352E3266205D
S1132C042563004E45573A204D4F44452025632003
S1132C147C204C4556454C2025352E3266202563B0
S1132C240041524520594F5520535552453F0028E1
S1132C3425632959455320202020202020202020AA
S1132C442020282563294E4F0053544F50204C49CB
S1132C54535420282564293B0053544F50204C4995
S1132C645354202820293B00256C752C25342E31FF
S1132C74662C25342E31662C25342E32662C2534CC
S1132C842E32662C25632C25632C25642C25640A9A
S1132C940053544F50204C4953543B002564005373
S1132CA44554204D4F444500202825642C2564298F
S1132CB4205B25632C25635D00202825642C256472
S1132CC429205B25635D002028256429205B256376
S1132CD45D00534554204C4556454C00202825643A
S1132CE42C256429205B25642C25645D002028257B
S1132CF4642C256429205B25645D0020282564292F
S1132D04205B25645D00534554204C4953540020F2
S1132D142825642C25642900253573005354415215
S10B2D24540053544F50000009
S9030000FC
