S0150000436F6E7374616E74506F7765722E73726563B8
S11300000C94B5000C94DE020C94D2000C94D20033
S11300100C94D2000C94D2000C94D2000C94D20014
S11300200C94D2000C94D2000C94D2000C94D20004
S11300300C94D2000C94D2000C94D4000C94D200F2
S11300400C94D2000C94D2000C9450020C94D20064
S11300500C94D2000C94D2000C94D2000C94D200D4
S11300600C94D2000C94D2006E616E00696E66002E
S113007000407A10F35A00A0724E18090010A5D45B
S1130080E80000E87648170000E40B54020000CAB8
S11300909A3B000000E1F5050000809698000000FE
S11300A040420F000000A08601000000102700005D
S11300B00000E803000000006400000000000A00E3
S11300C0000000000100000000002C76D888DC67E6
S11300D04F0823DFC1DFAE59E1B1B796E5E3E4533E
S11300E0C63AE651997696E8E6C28426EB898C9B5B
S11300F062ED407C6FFCEFBC9C9F40F2BAA56FA5FB
S1130100F490055A2AF75C936B6CF9676DC11BFC7C
S1130110E0E40D47FEF520E6B500D0ED902E030097
S1130120943577050080841E080000204E0A0000E4
S113013000C80C333333330F986E12831141EF8DA3
S11301402114893BE65516CFFEE6DB18D1844B38E3
S11301501BF77C1D901DA4BBE424203284725E2214
S11301608100C9F124ECA1E53D2711241FBECFEF86
S1130170D8E0DEBFCDBF11E0A0E0B1E0EEEDF8E1E4
S113018002C005900D92A432B107D9F721E0A4E290
S1130190B1E001C01D92A433B207E1F70E9420032D
S11301A00C946D0C0C9400001F920F920FB60F92DA
S11301B011244F925F926F927F928F929F92AF928F
S11301C0BF92CF92DF92EF92FF920F931F932F93E0
S11301D03F934F935F936F937F938F939F93AF93CB
S11301E0BF93EF93FF93CF93DF9300D000D0CDB7AD
S11301F0DEB780910001909101018436910509F0E8
S113020081C019821A821B821C829E012F5F3F4F7C
S1130210790100E010E04901C801880F991FFC0131
S1130220EE5FFE4F6F0160817181F801EA5FFE4F5E
S11302308081882389F080E090E00E94F20520E02C
S113024030E048EC52E40E9451052FE632E143E0ED
S113025050E40E94800636C0802F0E9453035C0144
S1130260F6016081718180E090E00E94F20520E057
S113027030E048EC52E40E9451052FE632E143E0BD
S113028050E40E94800620E030E040E450E40E9404
S113029080062B013C01B50180E090E00E94F2054C
S11302A020E030EC4FE754E40E94510520E030E0B8
S11302B040EA50E40E9480069B01AC01C301B201F4
S11302C00E94510520E030E040EA50E40E945105CC
S11302D020E030EF4FE755E40E9480060E94C305FA
S11302E0F701619371937F010F5F1F4F0230110576
S11302F009F092CFC4010E9475031092010110927B
S1130300000109C080910001909101010196909330
S11303100101809300010F900F900F900F90DF91D7
S1130320CF91FF91EF91BF91AF919F918F917F9169
S11303306F915F914F913F912F911F910F91FF907A
S1130340EF90DF90CF90BF90AF909F908F907F9071
S11303506F905F904F900F900FBE0F901F90189565
S11303608F929F92AF92BF92CF92DF92EF92FF92C1
S11303700F931F93CF93DF93CDB7DEB7A4970FB638
S1130380F894DEBF0FBECDBFCE0141969AA389A3D8
S113039040979CA38BA37E0181E2E80EF11C00E050
S11303A010E030E1A32E31E0B32E902EF801EA5F85
S11303B0FE4F6F018081811103C027E5822E02C0A8
S11303C091E4892EF801EE0FFF1FEE5FFE4F60816E
S11303D0718180E090E00E94F20520E030E048EC7A
S11303E052E40E9451059B01AC01F6018081811108
S11303F005C066EA7BE984EC90E404C06FE672E130
S113040083E090E40E948006F6012081211102C05D
S113041030E501C039E40F5F1F4FA801209133017B
S1130420291511F020E201C02AE2F701C080D18031
S1130430F2E0EF0EF11C1F928F929F938F937F93A4
S11304406F931F923F935F934F931F922F93BF928B
S1130450AF92DF92CF920E94ED0B60E0892D0E9453
S11304603A04C6010E9469040FB6F894DEBF0FBEB9
S1130470CDBF0230110509F098CFA4960FB6F894B9
S1130480DEBF0FBECDBFDF91CF911F910F91FF90C3
S1130490EF90DF90CF90BF90AF909F908F90089592
S11304A01F920F920FB60F9211240F931F932F9345
S11304B03F934F935F936F937F938F939F93AF93E8
S11304C0BF93EF93FF93CF93DF9300D000D0CDB7CA
S11304D0DEB70091240181E0800F8093240110E0B5
S11304E00E949C04F801EB5DFE4F8083E09124019F
S11304F0F0E0EB5DFE4F9081809124019B3319F075
S11305008F3008F442C010922401E0912401F0E0FD
S1130510EB5DFE4F80818B33C1F5AE014F5F5F4FC2
S1130520BE016D5F7F4F85E291E00E949F048B8145
S1130530883511F4809106018093060189818F3FEB
S113054021F0082E000C990B04C0809102019091B7
S1130550030190930301809302018C81883511F487
S113056080910701809307018A818F3F29F480914C
S113057004019091050103C0082E000C990B90937F
S11305800501809304010E94B0010F900F900F9019
S11305900F90DF91CF91FF91EF91BF91AF919F9118
S11305A08F917F916F915F914F913F912F911F9107
S11305B00F910F900FBE0F901F9018951F920F92DE
S11305C00FB60F9211242F933F934F935F936F9322
S11305D07F938F939F93AF93BF93EF93FF938091F8
S11305E03301811104C081E08093330102C0109271
S11305F033010E94B001FF91EF91BF91AF919F91A0
S11306008F917F916F915F914F913F912F910F90B7
S11306100FBE0F901F90189584B5826084BD85B578
S1130620836085BD89EF87BDEEE6F0E0808182605E
S1130630808308958AE08093690083E08DBB0895E8
S11306407894219A0E947C040E941A030E94450314
S11306500E946E030E9411040E940C030E94B001C8
S1130660299A2FEF89E698E1215080409040E1F7E4
S113067000C0000029982FEF89E698E121508040BE
S11306809040E1F700C00000EBCFECE7F0E08081A0
S113069080648083EAE7F0E08081876080838081E2
S11306A0806C8083089590917C00907F90937C006F
S11306B090917C008770982B90937C0080917A00B5
S11306C0806480937A0080917A0086FDFCCF8091CB
S11306D078002091790090E0922B089584B189628A
S11306E084B9289A81E58CBD0895FC01208131816B
S11306F0A90144275370452F40634EBD0DB407FE36
S1130700FDCF2EBD0DB407FEFDCFFC018281938188
S11307109C0122273370232F206B2EBD0DB407FEBE
S1130720FDCF8EBD0DB407FEFDCF8FE99FE001978D
S1130730F1F700C000002898EFE9FFE03197F1F7E6
S113074000C00000289A089594EA9093BC00909108
S1130750BC0097FFFCCF9091B900987F983091F43A
S11307608093BB0084E88093BC008091BC0087FF29
S1130770FCCF2091B900287F81E090E0283121F05E
S113078080E0089580E090E008958093BB0084E8C1
S11307908093BC008091BC0087FFFCCF9091B9008E
S11307A0987F21E030E0983211F020E030E0C90178
S11307B00895CF93DF93CBEBD0E0888182600E94D1
S11307C0C5038FE99FE00197F1F700C0000088811D
S11307D08D7FDF91CF910C94C5031F93CF93DF934B
S11307E0182FCBEBD0E088818E7F0E94C5038881CF
S11307F08F700E94C5038881C12FC07F8C2B0E94FB
S1130800C503DF91CF911F910C94D903CF93C82FC7
S1130810807F0E94ED038C2F8295807FCF910C9472
S1130820ED031092B90088E48093B80080E70E9439
S1130830A4032FEF89EF90E0215080409040E1F72E
S113084000C0000080E30E94ED0380E30E94ED03FA
S113085080E20E94ED0388E20E9406048CE00E947C
S1130860060481E00E94060486E00E94060480E8F3
S11308700C9406048295880F880F807C6068862B10
S11308800C9406041F93CF93DF93182FCBEBD0E087
S1130890888181600E94C50388818F700E94C5038E
S11308A08881912F907F892B0E94C5030E94D903D0
S11308B088818F700E94C503288130E1139FC00195
S11308C01124822B0E94C503DF91CF911F910C94B8
S11308D0D9030F931F93CF938C01C0E0F801EC0F61
S11308E0F11D8081882321F0CF5F0E944204F6CF5E
S11308F0CF911F910F9108956091080170910901A2
S113090080910A0190910B0120E038E542E050E02B
S11309100E946A0A215031093093C5002093C40013
S1130920E1ECF0E08081886180838081806880834D
S11309308EE08093C20008958091C6000895CF92FE
S1130940DF92EF92FF920F931F93CF93DF9300D028
S113095000D000D0CDB7DEB7DC0188E58D838E836F
S113096000910C0110910D0120910E0130910F01A5
S113097009831A832B833C8310E090E080E00AE033
S1130980FD01E80FF11D20812B3309F46FC0208194
S1130990293449F02081203531F0308121E0383587
S11309A019F020E001C021E0123060F420FF0AC0F9
S11309B02081E5E0F0E0EC0FFD1FE10FF11D208345
S11309C01F5F52C02081203308F44EC020812A3397
S11309D008F04AC0923008F047C020E030E0FD0142
S11309E0E80FF11DF0800F2EFCE2CF2EF02DFC104D
S11309F00CC08150FF24F394F90EE92FF0E0253662
S1130A0031052CF12FEF9FEF23C0F0800F2EFBE375
S1130A10DF2EF02DFD1469F3F0800F2EFFE2EF2E90
S1130A20F02DEF1430F7F0800F2EF9E3CF2EF02DD8
S1130A30CF14F8F2029F7001039FF00C112420815F
S1130A4030E0205331092E0D3F1D8F5FC8CF932F07
S1130A50EE0FFF1FCC24C394D12CCC0EDD1EEC0D65
S1130A60FD1D208391839F2D8F5F8ACF8D81FB0194
S1130A7080838981FA0180838E81FB0181838B814C
S1130A80FA01818326960FB6F894DEBF0FBECDBF60
S1130A90DF91CF911F910F91FF90EF90DF90CF9056
S1130AA008950E9465050C9446060E943F0658F07E
S1130AB00E94380640F029F45F3F29F00C942F0679
S1130AC051110C947A060C9435060E94570668F36B
S1130AD09923B1F3552391F3951B550BBB27AA27F3
S1130AE062177307840738F09F5F5F4F220F331F2D
S1130AF0441FAA1FA9F335D00E2E3AF0E0E832D0F5
S1130B0091505040E695001CCAF72BD0FE2F29D0F7
S1130B10660F771F881FBB1F261737074807AB07C9
S1130B20B0E809F0BB0B802DBF01FF2793585F4F3E
S1130B303AF09E3F510578F00C942F060C947A06F7
S1130B405F3FE4F3983ED4F3869577956795B79520
S1130B50F7959F5FC9F7880F911D9695879597F92B
S1130B600895E1E0660F771F881FBB1F62177307A4
S1130B708407BA0720F0621B730B840BBA0BEE1FB9
S1130B8088F7E09508950E945F0688F09F5798F0D3
S1130B90B92F9927B751B0F0E1F0660F771F881F7E
S1130BA0991F1AF0BA95C9F714C0B13091F00E9498
S1130BB07906B1E008950C947906672F782F882779
S1130BC0B85F39F0B93FCCF3869577956795B395BF
S1130BD0D9F73EF490958095709561957F4F8F4F2E
S1130BE09F4F0895E89409C097FB3EF49095809533
S1130BF0709561957F4F8F4F9F4F9923A9F0F92FDF
S1130C0096E9BB279395F695879577956795B7955C
S1130C10F111F8CFFAF4BB0F11F460FF1BC06F5F42
S1130C207F4F8F4F9F4F16C0882311F096E911C054
S1130C30772321F09EE8872F762F05C0662371F075
S1130C4096E8862F70E060E02AF09A95660F771F89
S1130C50881FDAF7880F9695879597F9089597F97D
S1130C609F6780E870E060E008959FEF80EC08954E
S1130C7000240A9416161706180609060895002477
S1130C800A9412161306140605060895092E0394F1
S1130C90000C11F4882352F0BB0F40F4BF2B11F465
S1130CA060FF04C06F5F7F4F8F4F9F4F089557FDC4
S1130CB09058440F551F59F05F3F71F04795880FC6
S1130CC097FB991F61F09F3F79F08795089512165D
S1130CD013061406551FF2CF4695F1DF08C0161609
S1130CE017061806991FF1CF8695710561050894BA
S1130CF00895E894BB2766277727CB0197F90895D1
S1130D000E9493060C9446060E94380638F00E940E
S1130D103F0620F0952311F00C942F060C94350611
S1130D2011240C947A060E94570670F3959FC1F320
S1130D30950F50E0551F629FF001729FBB27F00D85
S1130D40B11D639FAA27F00DB11DAA1F649F6627DA
S1130D50B00DA11D661F829F2227B00DA11D621F29
S1130D60739FB00DA11D621F839FA00D611D221FE3
S1130D70749F3327A00D611D231F849F600D211DC7
S1130D80822F762F6A2F11249F5750409AF0F1F04A
S1130D9088234AF0EE0FFF1FBB1F661F771F881FB3
S1130DA091505040A9F79E3F510580F00C942F06B6
S1130DB00C947A065F3FE4F3983ED4F386957795D6
S1130DC06795B795F795E7959F5FC1F7FE2B880F59
S1130DD0911D9695879597F90895A0E1B0E0E3EF0A
S1130DE0F6E00C948C0A7C011B016A01FC01178259
S1130DF01682838181FF44C39E012F5F3F4F3901D7
S1130E00F7019381F10193FD859193FF81911F0176
S1130E10882309F431C3853239F493FD859193FF16
S1130E2081911F01853239F4B70190E00E94B10B22
S1130E3056016501E5CF10E0512C912CFFE1F91525
S1130E40D8F08B3279F038F4803279F08332A1F41F
S1130E50F92DF0612EC08D3261F0803369F4292DB3
S1130E6021602DC0392D3260932E892D8460982EF7
S1130E702AC0E92DE86015C097FC2DC020ED280F8D
S1130E802A3088F496FE06C03AE0139F200D112400
S1130E90122F19C08AE0589E200D1124522EE92DDC
S1130EA0E0629E2E10C08E3231F496FCE5C2F92D1C
S1130EB0F0649F2E08C08C3621F4292D2068922ED0
S1130EC002C0883641F4F10193FD859193FF81912D
S1130ED01F018111B3CF9BEB980F933020F4992D10
S1130EE09061805E07C09BE9980F933008F066C15B
S1130EF0992D9F7E96FF16E09F73992E853619F4DF
S1130F009064992E08C0863621F4392F3068932EC8
S1130F1002C01111115097FE07C01C3350F4442431
S1130F204394410E27E00BC0183038F027E017E057
S1130F3005C027E09CE3492E02C0212F412C560115
S1130F4084E0A80EB11CF6016081718182819381D5
S1130F50042DA3010E94C30A6C01F981FC87F0FFF0
S1130F6002C0F3FF06C091FC06C092FE06C000E278
S1130F7005C00DE203C00BE201C000E08C858C705B
S1130F8019F001115AC29BC297FE10C04C0CFC858B
S1130F90F4FF04C08A81813309F44A94141474F56B
S1130FA028E0241578F588E0482E2CC096FC2AC049
S1130FB0812F90E08C159D059CF03CEFC3163FEF0C
S1130FC0D30674F0892D8068982E0AC0E2E0F0E020
S1130FD0EC0FFD1FE10FF11D8081803319F41150D6
S1130FE01111F4CF97FE0EC044244394410E812F77
S1130FF090E0C816D9062CF41C1904C04424439468
S113100001C010E097FE06C01C141D0434F4C60190
S1131010019605C085E090E002C081E090E00111F6
S11310200196112331F0212F30E02F5F3F4F820FC3
S1131030931F252D30E08217930714F4581A01C02A
S1131040512C892D897049F4552039F0B70180E27B
S113105090E00E94B10B5A94F7CF002329F0B70116
S1131060802F90E00E94B10B93FC09C0552039F009
S1131070B70180E390E00E94B10B5A94F7CF97FE3A
S11310804CC04601D7FE02C0812C912CC6018819A0
S11310909909F301E80FF91FFE87ED8796012419DA
S11310A03109388B2F87012F10E011950195110913
S11310B03FEF8316930629F4B7018EE290E00E9475
S11310C0B10BC814D9044CF08F85988988159905FB
S11310D024F4ED85FE85818101C080E3F1E08F1A5F
S11310E091082D853E852F5F3F4F3E872D878016C3
S11310F091062CF0B70190E00E94B10BD9CFC8142F
S1131100D90441F49A81963320F4953319F43C853B
S113111034FF81E3B70190E04EC08A81813319F036
S11311209C859F7E9C87B70190E00E94B10B1111B2
S113113005C094FC18C085E690E017C0B7018EE2A4
S113114090E00E94B10B1E5F82E001E0080FF30102
S1131150E80FF11D8081B70190E00E94B10B802F50
S11311600113F3CFE6CF85E490E0B7010E94B10B01
S1131170D7FC06C0C114D10441F4EC85E4FF05C0DA
S1131180D194C194D1088DE201C08BE2B70190E003
S11311900E94B10B80E32AE0C216D1042CF08F5FC9
S11311A0FAE0CF1AD108F7CFB70190E00E94B10B53
S11311B0B701C601C0960E94B10B54C1833631F009
S11311C0833779F0833509F056C020C0560132E0E8
S11311D0A30EB11CF6018081898301E010E0630154
S11311E012C05601F2E0AF0EB11CF601C080D180EE
S11311F096FE03C0612F70E002C06FEF7FEFC6015F
S11312000E94A60B8C01F92DFF7714C0560122E031
S1131210A20EB11CF601C080D18096FE03C0612FDE
S113122070E002C06FEF7FEFC6010E949B0B8C0140
S1131230F92DF0689F2EF3FD1AC0852D90E0081754
S11312401907A8F4B70180E290E00E94B10B5A9408
S1131250F4CFF60197FC859197FE81916F01B70158
S113126090E00E94B10B51105A94015011090115DC
S1131270110579F7F7C0843611F0893661F5560106
S113128097FE09C024E0A20EB11CF60160817181B1
S1131290828193810AC0F2E0AF0EB11CF601608135
S11312A07181072E000C880B990BF92DFF769F2E68
S11312B097FF09C090958095709561957F4F8F4FEA
S11312C09F4FF0689F2E2AE030E0A3010E940F0C8C
S11312D0C82EC6183FC0092D853721F40F7E2AE099
S11312E030E01DC0097F8F3691F018F4883559F02D
S11312F0C3C0803719F0883711F0BEC0006104FF05
S113130009C0046007C094FE08C0066006C028E057
S113131030E005C020E130E002C020E132E05601B7
S113132007FF09C084E0A80EB11CF6016081718139
S11313308281938108C0F2E0AF0EB11CF601608196
S1131340718180E090E0A3010E940F0CC82EC618A2
S11313500F77902E96FE0BC0092D0E7FC11650F408
S113136094FE0AC092FC08C0092D0E7E05C0DC2C38
S1131370092D03C0DC2C01C0D12E04FF0DC0FE01D9
S1131380EC0DF11D8081803311F4097E09C002FF48
S113139006C0D394D39404C0802F867809F0D394E4
S11313A003FD11C000FF06C01C2DD51480F4150DDB
S11313B01D190DC0D51458F4B70180E290E00E94C5
S11313C0B10BD394F7CFD51410F45D1801C0512C90
S11313D004FF10C0B70180E390E00E94B10B02FF4C
S11313E017C001FD03C088E790E002C088E590E0E3
S11313F0B7010CC0802F867859F001FF02C08BE240
S113140001C080E207FD8DE2B70190E00E94B10BBC
S1131410C11638F4B70180E390E00E94B10B11507B
S1131420F7CFCA94F301EC0DF11D8081B70190E070
S11314300E94B10BC110F5CF15C0F4E0F51560F5AD
S113144084E0581A93FE1FC0011127C02C8523FF86
S11314502AC008E610E0392D3071932EF8018491EA
S1131460811124C0552009F4E4CCB70180E290E056
S11314700E94B10B5A94F6CFF7018681978126C05A
S11314808FEF9FEF23C0B70180E290E00E94B10B81
S11314905A945110F8CFD8CF512CB701802F90E037
S11314A00E94B10BD3CF0CE610E0D5CF911080523F
S11314B0B70190E00E94B10B0F5F1F4FCFCF23E025
S11314C0251510F483E0BDCF512CC0CF6096E2E126
S11314D00C94A80AA1E21A2EAA1BBB1BFD010DC085
S11314E0AA1FBB1FEE1FFF1FA217B307E407F507D0
S11314F020F0A21BB30BE40BF50B661F771F881FAC
S1131500991F1A9469F760957095809590959B0141
S1131510AC01BD01CF0108952F923F924F925F928B
S11315206F927F928F929F92AF92BF92CF92DF92EF
S1131530EF92FF920F931F93CF93DF93CDB7DEB754
S1131540CA1BDB0B0FB6F894DEBF0FBECDBF0994E8
S11315502A88398848885F846E847D848C849B843F
S1131560AA84B984C884DF80EE80FD800C811B814D
S1131570AA81B981CE0FD11D0FB6F894DEBF0FBE7C
S1131580CDBFED010895283008F027E03327DA01B4
S1131590990F311D87FD916000966105710539F43D
S11315A032602E5F3D9330E32A95E1F708959F3F23
S11315B030F080387105610509F03C5F3C5F3D9374
S11315C0913008F08068911DDF93CF931F930F93A0
S11315D0FF92EF92192F987F9695E92F96959695FD
S11315E0E90FFF27E653FF4F99273327EE24FF2403
S11315F0A701E70105900894079428F4360FE71E25
S1131600F81E491F511D660F771F881F991F0694E6
S1131610A1F70590079428F4E70EF81E491F561FFA
S1131620C11D770F881F991F661F0694A1F70590A7
S1131630079428F4F80E491F561FC71FD11D880FA1
S1131640991F661F771F0694A1F70590079420F44D
S1131650490F561FC71FD81F990F661F771F881F72
S11316600694A9F784911095177041F0D695C79503
S113167057954795F794E7941A95C1F7E0E7F0E09A
S113168068941590159135916591959105907FE237
S11316907395E118F10A430B560BC90BD009C0F737
S11316A0E10CF11E431F561FC91FD01D7EF4703379
S11316B011F48A95E6CFE894015030F0080F0AF44B
S11316C00027021708F4202F2395022F7A3328F0DD
S11316D079E37D932A95E9F710C07D932A9589F6DD
S11316E0069497956795379517951794E118F10A1D
S11316F0430B560BC90BD00998F023957E91739533
S11317007A3308F070E37C932013B8F77E9170610C
S11317107D9330F0839571E37D9370E32A95E1F72F
S11317201124EF90FF900F911F91CF91DF91992792
S113173087FD90950895FC0105906150704001105B
S1131740D8F7809590958E0F9F1F0895FC016150E6
S1131750704001900110D8F7809590958E0F9F1FCF
S113176008950F931F93CF93DF93FB01238121FDF2
S113177003C08FEF9FEF2CC022FF16C04681578114
S1131780248135814217530744F4A081B1819D011E
S11317902F5F3F4F318320838C93268137812F5FC6
S11317A03F4F3783268314C08B01EC01FB01008477
S11317B0F185E02D0995892BE1F6D80116968D91D6
S11317C09C911797019617969C938E931697CE012A
S11317D0DF91CF911F910F910895AEE0B0E0E3EF58
S11317E0FBE00C949A0A0D891E8986E08C831A8387
S11317F009838FEF9FE79E838D83AE01475E5F4F22
S11318006F89788DCE0101960E94ED06EF81F885EF
S1131810E00FF11F10822E96E4E00C94B60AFA0150
S1131820AA27283051F1203181F1E8946F936E7F1B
S11318306E5F7F4F8F4F9F4FAF4FB1E03ED0B4E00C
S11318403CD0670F781F891F9A1FA11D680F791F4D
S11318508A1F911DA11D6A0F711D811D911DA11D5E
S113186020D009F468943F912AE0269F112430196E
S1131870305D3193DEF6CF010895462F4770405D09
S11318804193B3E00FD0C9F7F6CF462F4F70405DB8
S11318904A3318F0495D31FD4052419302D0A9F713
S11318A0EACFB4E0A6959795879577956795BA950D
S11318B0C9F700976105710508959B01AC010A2ED3
S11318C006945795479537952795BA95C9F7620FAA
S11118D0731F841F951FA01D0895F894FFCF69
S11318DE64006400640001000024F400FFFFFFFFB5
S11318EE282563294348256420256320252E326646
S10718FE202563003A
S9030000FC
