:100000000C94B5000C9461040C94A6040C94D200DA
:100010000C94D2000C94D2000C94D2000C94D20018
:100020000C94D2000C94D2000C94D2000C94D20008
:100030000C94D2000C94D2000C94EE020C94D200DA
:100040000C94D2000C94D2000C94D4000C94D200E6
:100050000C94D2000C94D2000C94D2000C94D200D8
:100060000C94D2000C94D2006E616E00696E660032
:1000700000407A10F35A00A0724E18090010A5D45F
:10008000E80000E87648170000E40B54020000CABC
:100090009A3B000000E1F505000080969800000002
:1000A00040420F000000A086010000001027000061
:1000B0000000E803000000006400000000000A00E7
:1000C000000000000100000000002C76D888DC67EA
:1000D0004F0823DFC1DFAE59E1B1B796E5E3E45342
:1000E000C63AE651997696E8E6C28426EB898C9B5F
:1000F00062ED407C6FFCEFBC9C9F40F2BAA56FA5FF
:10010000F490055A2AF75C936B6CF9676DC11BFC80
:10011000E0E40D47FEF520E6B500D0ED902E03009B
:10012000943577050080841E080000204E0A0000E8
:1001300000C80C333333330F986E12831141EF8DA7
:100140002114893BE65516CFFEE6DB18D1844B38E7
:100150001BF77C1D901DA4BBE424203284725E2218
:100160008100C9F124ECA1E53D2711241FBECFEF8A
:10017000D8E0DEBFCDBF11E0A0E0B1E0E8E8FCE1EF
:1001800002C005900D92AC3BB107D9F722E0ACEB71
:10019000B1E001C01D92A630B207E1F70E94FF0452
:1001A0000C94420E0C9400001F920F920FB60F9207
:1001B00011242F933F934F935F936F937F938F936C
:1001C0009F93AF93BF93EF93FF93CF93DF9300D0B1
:1001D000CDB7DEB70E946F06282F221F2227221FCD
:1001E000298391E092279A83282F2F778D778D3757
:1001F00049F0293711F430E501C039E490E05FEFB0
:10020000520F15C081E02D3709F080E08093050280
:100210002FC0573788F4E1E0F0E0EC0FFD1FE90F45
:10022000F11DE081F0E0E250FE4F20839F5F40919E
:100230000502491770F71CC0893719F0222361F0B5
:10024000F5CFE1E0F0E0EC0FFD1FE90FF11DE081DB
:10025000F0E0EE5FFE4F3083E1E0F0E0EC0FFD1FD9
:10026000E90FF11DE081F0E0E250FE4F1082DECF99
:100270000F900F90DF91CF91FF91EF91BF91AF91D0
:100280009F918F917F916F915F914F913F912F91AE
:100290000F900FBE0F901F9018952F923F924F9284
:1002A0005F926F927F928F929F92AF92BF92CF9206
:1002B000DF92EF92FF920F931F93CF93DF93CDB70F
:1002C000DEB7C654D1090FB6F894DEBF0FBECDBF5E
:1002D00091E28E010E5D1F4FF801292F11922A9590
:1002E000E9F780E28AA3FE0131967F0111929A9587
:1002F000E9F7898325961FAF0EAF25972796FFAEA6
:10030000EEAE279780910102813009F48CC020F075
:10031000823009F417C148C19E012D5B3F4F79011E
:1003200000E010E0302EC801880F991F880F991F38
:10033000FC01EA50FE4F4080518062807380FC01D6
:10034000E251FE4F80809180A280B380C8018E5F11
:100350009E4F6C01FC018081893419F057E5252EF0
:1003600002C041E4242EF801E250FE4F608170E0AB
:1003700080E090E00E94970720E030E040EF52E4F8
:100380000E94F6069B01AC01F6018081893429F0B8
:1003900060E070E080E291E404C060E070E080E042
:1003A00090E40E942A08F60150810F5F1F4F302F02
:1003B000412F20910402231511F020E201C02AE20E
:1003C000F701C080D180F2E0EF0EF11C7F926F92B6
:1003D0005F924F92BF92AF929F928F921F922F92F5
:1003E0009F938F937F936F931F925F934F933F934E
:1003F0001F922F9324E031E03F932F93DF92CF920F
:100400000E94C20D60E0832D0E941806C6010E9462
:100410003D060FB6F894DEBF0FBECDBF023011050A
:1004200009F080CFC1C0E0910402F0E0EE5FFE4F22
:100430008081893419F037E5C32E02C021E4C22E31
:10044000E0910402F0E0E250FE4F608170E080E055
:1004500090E00E94970720E030E040EF52E40E94D5
:10046000F6069B01AC01E0910402F0E0EE5FFE4F66
:100470008081893429F060E070E080E291E404C07A
:1004800060E070E080E090E4E0910402F0E0EE5F74
:10049000FE4FB080D09004021F92CF920E942A0893
:1004A0009F938F937F936F931F92BF928D2D90E0B8
:1004B00001969F938F9389E291E09F938F931F936F
:1004C0000F930E94C20D809103020FB6F894DEBF15
:1004D0000FBECDBF893419F097E5D92E02C081E453
:1004E000D82E6091020270E080E090E00E949707B1
:1004F00020E030E040EF52E40E94F6069B01AC01A0
:1005000080910302893429F060E070E080E291E498
:1005100004C060E070E080E090E4C09003021F92AD
:10052000DF920E942A089F938F937F936F931F926D
:10053000CF928DE491E09F938F93FF92EF920E9470
:10054000C20D1FC06BE671E0C8010E94740D80915E
:100550000002811102C09AE201C090E28091000283
:10056000811102C080E201C08AE21F929F931F9214
:100570008F9389E791E09F938F93FF92EF920E9470
:10058000C20D60E080E00E941806C8010E943D068E
:1005900060E081E00E941806C7010E943D060FB688
:1005A000F894DEBF0FBECDBFCA5BDF4F0FB6F89425
:1005B000DEBF0FBECDBFDF91CF911F910F91FF9096
:1005C000EF90DF90CF90BF90AF909F908F907F90F3
:1005D0006F905F904F903F902F9008951F920F92D1
:1005E0000FB60F9211244F925F926F927F928F926B
:1005F0009F92AF92BF92CF92DF92EF92FF920F93B2
:100600001F932F933F934F935F936F937F938F939A
:100610009F93AF93BF93CF93DF93EF93FF9380911B
:100620000001909101018A30910509F024C1C0E0D8
:10063000D0E0DC2E8C2F0E944405BC0180E090E0CD
:100640000E94970720E030EC4FE754E40E94F60642
:1006500020E030E040E751E40E942A088E01000FBC
:10066000111F000F111FD801A251BE4F6D937D9332
:100670008D939C931397FE01EE5FFE4F8081FE01E8
:10068000E250FE4F98012A503E4F7901608180353B
:1006900001F58D909D90AD90BC9070E080E090E071
:1006A0000E94970720E030E040EF52E40E94F606F7
:1006B0002B013C01A501940160E070E080E291E42F
:1006C0000E94F6069B01AC01C301B2010E942A08F8
:1006D0000FC070E080E090E00E94970720E030E0DB
:1006E00040EF52E40E94F6069B01AC010E948A068C
:1006F000F7016083718382839383F801EA50FE4F90
:10070000608171818281938120E030E040E450E497
:100710000E942A0820E030E040EA50E40E94F606F9
:1007200020E030EF4FE755E40E942A080E94680756
:100730000E9497074B015C0120E030EF4FE755E442
:100740000E94250818162CF0C501B4010E94680704
:1007500002C06FEF7FE08D2D0E945F052196C230B1
:10076000D10509F066CF82E00E944405BC0180E01B
:1007700090E00E94970720E030EC4FE754E40E949D
:10078000F60620E030E040EF52E40E942A086B01B8
:100790007C0120E030E040EF52E40E94250818166A
:1007A0002CF0C701B6010E94680701C068E760939A
:1007B0000202B0900502D091FF01C091FE01F091BC
:1007C0000301E0910201C090FA01D090FB01E0909A
:1007D000FC01F090FD010091F6011091F7012091CC
:1007E000F8013091F9014091F2015091F3016091CB
:1007F000F4017091F5018091EE019091EF01A091CB
:10080000F001B091F1011F92BF921F92DF931F92EE
:10081000CF931F92FF931F92EF93FF92EF92DF927D
:10082000CF923F932F931F930F937F936F935F9379
:100830004F93BF93AF939F938F9383E991E09F93DF
:100840008F938CEB91E09F938F930E94C20D8CEB62
:1008500091E00E9476060E944D01109201011092D3
:1008600000012DB73EB7225E3F4F0FB6F8943EBF52
:100870000FBE2DBF05C0019690930101809300012A
:10088000FF91EF91DF91CF91BF91AF919F918F91A8
:100890007F916F915F914F913F912F911F910F9198
:1008A000FF90EF90DF90CF90BF90AF909F908F9090
:1008B0007F906F905F904F900F900FBE0F901F90A2
:1008C00018951F920F920FB60F9211242F933F93FA
:1008D0004F935F936F937F938F939F93AF93BF9348
:1008E000EF93FF9380910102813061F018F0823024
:1008F00099F019C09091040281E0911180E08093F9
:10090000040211C080910302893411F089E401C00E
:1009100080E58093030207C09091000281E091116D
:1009200080E0809300020E944D01FF91EF91BF9102
:10093000AF919F918F917F916F915F914F913F9177
:100940002F910F900FBE0F901F9018951F920F922E
:100950000FB60F9211242F933F934F935F936F9392
:100960007F938F939F93AF93BF93EF93FF93809168
:1009700001028F5F80930102809101028330C0F0F9
:1009800080910002882381F0E0910402F0E08091E0
:100990000302EE5FFE4F8083E0910402F0E080915D
:1009A0000202E250FE4F8083109201021092000278
:1009B0000E944D01FF91EF91BF91AF919F918F9157
:1009C0007F916F915F914F913F912F910F900FBE4B
:1009D0000F901F90189584B5826084BD85B58360A3
:1009E00085BD89EF87BDEEE6F0E08081826080837F
:1009F00008958AE08093690083E08DBB0895789420
:100A00003B9A0E9457060E94F9040E94360560EA4C
:100A100076E881E090E00E9476050E94E5050E945C
:100A2000EB04E0910402F0E0EE5FFE4F80818093E2
:100A30000302E0910402F0E0E250FE4F80818093D7
:100A40000202439A2FEF84E39CE0215080409040C3
:100A5000E1F700C0000043982FEF84E39CE02150B1
:100A600080409040E1F700C00000EBCFECE7F0E001
:100A7000808180648083EAE7F0E080818660808303
:100A80008081806C8083089590917C00907F90930A
:100A90007C0090917C008770982B90937C008091D3
:100AA0007A00806480937A0080917A0086FDFCCF82
:100AB000809178002091790090E0922B0895CF9357
:100AC000DF93EB01282F217030E0C901880F991FB7
:100AD000806C0E948C058D2F8F700E94B1058C2F29
:100AE0000E94B105DF91CF910C94AD059B01AC0143
:100AF0001092B90060E074E284EF90E00E94380C3C
:100B0000DA01C9014097A109B109B695A795979552
:100B100087958093B800089594EA9093BC009091D3
:100B2000BC0097FFFCCF9091B900987F983091F46A
:100B30008093BB0084E88093BC008091BC0087FF59
:100B4000FCCF2091B900287F81E090E0283121F08E
:100B500080E0089580E090E0089584E98093BC00EF
:100B600008958093BB0084E88093BC008091BC0012
:100B700087FFFCCF9091B900987F21E030E0983258
:100B800011F020E030E0C9010895299A8FE99FE033
:100B90000197F1F700C0000029980895289895B1B1
:100BA000937095B995B1807F86958695982B95B968
:100BB0000C94C505CF93C82F807F0E94CE058C2F43
:100BC0008295807FCF910C94CE0584B18F6384B9D8
:100BD0002FEF89EF90E0215080409040E1F700C076
:100BE000000080E30E94CE058FE090E40197F1F7CA
:100BF00000C0000080E30E94CE058FE891E00197DD
:100C0000F1F700C0000080E30E94CE0580E20E9460
:100C1000CE0588E20E94DA058CE00E94DA0581E0C8
:100C20000E94DA0586E00E94DA0580E80C94DA0575
:100C30008295880F880F807C6068862B0C94DA057B
:100C4000CF93C82F289A85B1837085B995B18C2F21
:100C5000807F86958695892B85B90E94C50585B1CB
:100C6000837085B925B1CF7034E0C39FC0011124D2
:100C7000822B85B9CF910C94C5050F931F93CF9309
:100C80008C01C0E0F801EC0FF11D8081882321F078
:100C9000CF5F0E942006F6CFC13228F480E20E9486
:100CA0002006CF5FF9CFCF911F910F910895109239
:100CB000C50087E68093C400E1ECF0E080818861A4
:100CC00080838081806880838EE08093C200089555
:100CD0009091C00095FFFCCF8093C600089580914D
:100CE000C00087FFFCCF8091C60008950F931F932B
:100CF000CF938C01C0E0F801EC0FF11D80818823B7
:100D000021F0CF5F0E946806F6CFCF911F910F911F
:100D100008955058BB27AA270E94A1060C94EB0700
:100D20000E94DD0738F00E94E40720F039F49F3F6D
:100D300019F426F40C94DA070EF4E095E7FB0C9412
:100D4000D407E92F0E94FC0758F3BA17620773070C
:100D50008407950720F079F4A6F50C941E080EF48C
:100D6000E0950B2EBA2FA02D0B01B90190010C01BB
:100D7000CA01A0011124FF27591B99F0593F50F4D3
:100D8000503E68F11A16F040A22F232F342F44272B
:100D9000585FF3CF469537952795A795F040539523
:100DA000C9F77EF41F16BA0B620B730B840BBAF0F3
:100DB0009150A1F0FF0FBB1F661F771F881FC2F75E
:100DC0000EC0BA0F621F731F841F48F48795779572
:100DD0006795B795F7959E3F08F0B0CF9395880F2C
:100DE00008F09927EE0F9795879508950E940A07B6
:100DF0000C94EB070E94E40758F00E94DD0740F0D6
:100E000029F45F3F29F00C94D40751110C941F086A
:100E10000C94DA070E94FC0768F39923B1F3552379
:100E200091F3951B550BBB27AA27621773078407FD
:100E300038F09F5F5F4F220F331F441FAA1FA9F393
:100E400035D00E2E3AF0E0E832D091505040E69581
:100E5000001CCAF72BD0FE2F29D0660F771F881FE2
:100E6000BB1F261737074807AB07B0E809F0BB0BD5
:100E7000802DBF01FF2793585F4F3AF09E3F5105E9
:100E800078F00C94D4070C941F085F3FE4F3983E6D
:100E9000D4F3869577956795B795F7959F5FC9F7D2
:100EA000880F911D9695879597F90895E1E0660F53
:100EB000771F881FBB1F621773078407BA0720F0CC
:100EC000621B730B840BBA0BEE1F88F7E095089535
:100ED0000E94040888F09F5798F0B92F9927B751BE
:100EE000B0F0E1F0660F771F881F991F1AF0BA95CE
:100EF000C9F714C0B13091F00E941E08B1E0089506
:100F00000C941E08672F782F8827B85F39F0B93FF7
:100F1000CCF3869577956795B395D9F73EF4909580
:100F20008095709561957F4F8F4F9F4F0895E894FE
:100F300009C097FB3EF490958095709561957F4F21
:100F40008F4F9F4F9923A9F0F92F96E9BB279395CF
:100F5000F695879577956795B795F111F8CFFAF4DF
:100F6000BB0F11F460FF1BC06F5F7F4F8F4F9F4F10
:100F700016C0882311F096E911C0772321F09EE86E
:100F8000872F762F05C0662371F096E8862F70E0D4
:100F900060E02AF09A95660F771F881FDAF7880FAE
:100FA0009695879597F9089597F99F6780E870E07F
:100FB00060E008959FEF80EC089500240A941616CF
:100FC000170618060906089500240A941216130637
:100FD000140605060895092E0394000C11F48823C5
:100FE00052F0BB0F40F4BF2B11F460FF04C06F5FE1
:100FF0007F4F8F4F9F4F089557FD9058440F551FB7
:1010000059F05F3F71F04795880F97FB991F61F08A
:101010009F3F79F087950895121613061406551F01
:10102000F2CF4695F1DF08C0161617061806991F6D
:10103000F1CF86957105610508940895E894BB2762
:1010400066277727CB0197F908950E94970808F43F
:101050008FEF08950E943D080C94EB070E94DD0776
:1010600038F00E94E40720F0952311F00C94D40787
:101070000C94DA0711240C941F080E94FC0770F3EB
:10108000959FC1F3950F50E0551F629FF001729F2D
:10109000BB27F00DB11D639FAA27F00DB11DAA1F3C
:1010A000649F6627B00DA11D661F829F2227B00D89
:1010B000A11D621F739FB00DA11D621F839FA00D14
:1010C000611D221F749F3327A00D611D231F849F64
:1010D000600D211D822F762F6A2F11249F575040BB
:1010E0009AF0F1F088234AF0EE0FFF1FBB1F661F36
:1010F000771F881F91505040A9F79E3F510580F0FF
:101100000C94D4070C941F085F3FE4F3983ED4F38B
:10111000869577956795B795F795E7959F5FC1F7A2
:10112000FE2B880F911D9695879597F90895990F35
:101130000008550FAA0BE0E8FEEF16161706E807A1
:10114000F907C0F012161306E407F50798F0621BC2
:10115000730B840B950B39F40A2661F0232B242B97
:10116000252B21F408950A2609F4A140A6958FEFB6
:10117000811D811D0895A0E1B0E0E1ECF8E00C9440
:101180005A0C7C011B016A01FC01178216828381C3
:1011900081FF44C39E012F5F3F4F3901F7019381C7
:1011A000F10193FD859193FF81911F01882309F43B
:1011B00031C3853239F493FD859193FF81911F01ED
:1011C000853239F4B70190E00E94860D5601650121
:1011D000E5CF10E0512C912CFFE1F915D8F08B32BE
:1011E00079F038F4803279F08332A1F4F92DF0618E
:1011F0002EC08D3261F0803369F4292D21602DC01D
:10120000392D3260932E892D8460982E2AC0E92DC5
:10121000E86015C097FC2DC020ED280F2A3088F417
:1012200096FE06C03AE0139F200D1124122F19C01C
:101230008AE0589E200D1124522EE92DE0629E2E48
:1012400010C08E3231F496FCE5C2F92DF0649F2E69
:1012500008C08C3621F4292D2068922E02C08836D1
:1012600041F4F10193FD859193FF81911F0181115B
:10127000B3CF9BEB980F933020F4992D9061805E53
:1012800007C09BE9980F933008F066C1992D9F7EA7
:1012900096FF16E09F73992E853619F49064992E67
:1012A00008C0863621F4392F3068932E02C0111100
:1012B000115097FE07C01C3350F444244394410E50
:1012C00027E00BC0183038F027E017E005C027E012
:1012D0009CE3492E02C0212F412C560184E0A80E28
:1012E000B11CF6016081718182819381042DA3017B
:1012F0000E94910C6C01F981FC87F0FF02C0F3FFA2
:1013000006C091FC06C092FE06C000E205C00DE2D8
:1013100003C00BE201C000E08C858C7019F0011154
:101320005AC29BC297FE10C04C0CFC85F4FF04C04F
:101330008A81813309F44A94141474F528E0241541
:1013400078F588E0482E2CC096FC2AC0812F90E0CA
:101350008C159D059CF03CEFC3163FEFD30674F04F
:10136000892D8068982E0AC0E2E0F0E0EC0FFD1FA6
:10137000E10FF11D8081803319F411501111F4CF68
:1013800097FE0EC044244394410E812F90E0C8166E
:10139000D9062CF41C1904C04424439401C010E065
:1013A00097FE06C01C141D0434F4C601019605C046
:1013B00085E090E002C081E090E0011101961123E8
:1013C00031F0212F30E02F5F3F4F820F931F252DEB
:1013D00030E08217930714F4581A01C0512C892D5C
:1013E000897049F4552039F0B70180E290E00E94FD
:1013F000860D5A94F7CF002329F0B701802F90E093
:101400000E94860D93FC09C0552039F0B70180E396
:1014100090E00E94860D5A94F7CF97FE4CC046018B
:10142000D7FE02C0812C912CC60188199909F301BD
:10143000E80FF91FFE87ED87960124193109388BD3
:101440002F87012F10E01195019511093FEF8316A9
:10145000930629F4B7018EE290E00E94860DC8142D
:10146000D9044CF08F8598898815990524F4ED8569
:10147000FE85818101C080E3F1E08F1A91082D85FE
:101480003E852F5F3F4F3E872D87801691062CF0BB
:10149000B70190E00E94860DD9CFC814D90441F459
:1014A0009A81963320F4953319F43C8534FF81E317
:1014B000B70190E04EC08A81813319F09C859F7EF0
:1014C0009C87B70190E00E94860D111105C094FC25
:1014D00018C085E690E017C0B7018EE290E00E9448
:1014E000860D1E5F82E001E0080FF301E80FF11D99
:1014F0008081B70190E00E94860D802F0113F3CF09
:10150000E6CF85E490E0B7010E94860DD7FC06C0C7
:10151000C114D10441F4EC85E4FF05C0D194C19419
:10152000D1088DE201C08BE2B70190E00E94860DE8
:1015300080E32AE0C216D1042CF08F5FFAE0CF1AC4
:10154000D108F7CFB70190E00E94860DB701C60120
:10155000C0960E94860D54C1833631F0833779F0EE
:10156000833509F056C020C0560132E0A30EB11CED
:10157000F6018081898301E010E0630112C0560109
:10158000F2E0AF0EB11CF601C080D18096FE03C020
:10159000612F70E002C06FEF7FEFC6010E947B0DEC
:1015A0008C01F92DFF7714C0560122E0A20EB11C68
:1015B000F601C080D18096FE03C0612F70E002C0AA
:1015C0006FEF7FEFC6010E94690D8C01F92DF06865
:1015D0009F2EF3FD1AC0852D90E008171907A8F477
:1015E000B70180E290E00E94860D5A94F4CFF60194
:1015F00097FC859197FE81916F01B70190E00E9461
:10160000860D51105A94015011090115110579F7F1
:10161000F7C0843611F0893661F5560197FE09C08E
:1016200024E0A20EB11CF601608171818281938158
:101630000AC0F2E0AF0EB11CF60160817181072E85
:10164000000C880B990BF92DFF769F2E97FF09C090
:1016500090958095709561957F4F8F4F9F4FF06863
:101660009F2E2AE030E0A3010E94E40DC82EC61888
:101670003FC0092D853721F40F7E2AE030E01DC0E0
:10168000097F8F3691F018F4883559F0C3C0803740
:1016900019F0883711F0BEC0006104FF09C0046072
:1016A00007C094FE08C0066006C028E030E005C010
:1016B00020E130E002C020E132E0560107FF09C01E
:1016C00084E0A80EB11CF601608171818281938152
:1016D00008C0F2E0AF0EB11CF6016081718180E0BC
:1016E00090E0A3010E94E40DC82EC6180F77902E3B
:1016F00096FE0BC0092D0E7FC11650F494FE0AC051
:1017000092FC08C0092D0E7E05C0DC2C092D03C0FB
:10171000DC2C01C0D12E04FF0DC0FE01EC0DF11D2B
:101720008081803311F4097E09C002FF06C0D39482
:10173000D39404C0802F867809F0D39403FD11C0A0
:1017400000FF06C01C2DD51480F4150D1D190DC009
:10175000D51458F4B70180E290E00E94860DD3942E
:10176000F7CFD51410F45D1801C0512C04FF10C040
:10177000B70180E390E00E94860D02FF17C001FDD3
:1017800003C088E790E002C088E590E0B7010CC094
:10179000802F867859F001FF02C08BE201C080E201
:1017A00007FD8DE2B70190E00E94860DC11638F466
:1017B000B70180E390E00E94860D1150F7CFCA94E4
:1017C000F301EC0DF11D8081B70190E00E94860DC0
:1017D000C110F5CF15C0F4E0F51560F584E0581A96
:1017E00093FE1FC0011127C02C8523FF2AC008E6E5
:1017F00010E0392D3071932EF8018491811124C0AD
:10180000552009F4E4CCB70180E290E00E94860DF7
:101810005A94F6CFF7018681978126C08FEF9FEF0C
:1018200023C0B70180E290E00E94860D5A945110C7
:10183000F8CFD8CF512CB701802F90E00E94860DB1
:10184000D3CF0CE610E0D5CF91108052B70190E0D5
:101850000E94860D0F5F1F4FCFCF23E0251510F498
:1018600083E0BDCF512CC0CF6096E2E10C94760CA2
:10187000A1E21A2EAA1BBB1BFD010DC0AA1FBB1F94
:10188000EE1FFF1FA217B307E407F50720F0A21B06
:10189000B30BE40BF50B661F771F881F991F1A9473
:1018A00069F760957095809590959B01AC01BD019D
:1018B000CF0108952F923F924F925F926F927F9245
:1018C0008F929F92AF92BF92CF92DF92EF92FF9250
:1018D0000F931F93CF93DF93CDB7DEB7CA1BDB0BFC
:1018E0000FB6F894DEBF0FBECDBF09942A883988A1
:1018F00048885F846E847D848C849B84AA84B984A8
:10190000C884DF80EE80FD800C811B81AA81B981B3
:10191000CE0FD11D0FB6F894DEBF0FBECDBFED01C7
:101920000895283008F027E03327DA01990F311D98
:1019300087FD916000966105710539F432602E5F74
:101940003D9330E32A95E1F708959F3F30F08038CA
:101950007105610509F03C5F3C5F3D93913008F0F3
:101960008068911DDF93CF931F930F93FF92EF92A7
:10197000192F987F9695E92F96959695E90FFF2751
:10198000E653FF4F99273327EE24FF24A701E701F1
:1019900005900894079428F4360FE71EF81E491F97
:1019A000511D660F771F881F991F0694A1F7059098
:1019B000079428F4E70EF81E491F561FC11D770F24
:1019C000881F991F661F0694A1F70590079428F4B5
:1019D000F80E491F561FC71FD11D880F991F661F7C
:1019E000771F0694A1F70590079420F4490F561F1E
:1019F000C71FD81F990F661F771F881F0694A9F766
:101A000084911095177041F0D695C79557954795D5
:101A1000F794E7941A95C1F7E0E7F0E06894159021
:101A2000159135916591959105907FE27395E11837
:101A3000F10A430B560BC90BD009C0F7E10CF11E9C
:101A4000431F561FC91FD01D7EF4703311F48A95B1
:101A5000E6CFE894015030F0080F0AF4002702178F
:101A600008F4202F2395022F7A3328F079E37D9311
:101A70002A95E9F710C07D932A9589F606949795E3
:101A80006795379517951794E118F10A430B560B94
:101A9000C90BD00998F023957E9173957A3308F09D
:101AA00070E37C932013B8F77E9170617D9330F0E2
:101AB000839571E37D9370E32A95E1F71124EF900C
:101AC000FF900F911F91CF91DF91992787FD9095FE
:101AD0000895FC010590615070400110D8F7809581
:101AE00090958E0F9F1F0895FB01DC0101900D92D0
:101AF0000020E1F70895FC01615070400190011051
:101B0000D8F7809590958E0F9F1F08950F931F9380
:101B1000CF93DF93FB01238121FD03C08FEF9FEF64
:101B20002CC022FF16C0468157812481358142177F
:101B3000530744F4A081B1819D012F5F3F4F318352
:101B400020838C93268137812F5F3F4F37832683F5
:101B500014C08B01EC01FB010084F185E02D099597
:101B6000892BE1F6D80116968D919C9117970196D5
:101B700017969C938E931697CE01DF91CF911F916C
:101B80000F910895AEE0B0E0E8ECFDE00C94680C35
:101B90000D891E8986E08C831A8309838FEF9FE766
:101BA0009E838D83AE01475E5F4F6F89788DCE0136
:101BB00001960E94BB08EF81F885E00FF11F1082AB
:101BC0002E96E4E00C94840CFA01AA27283051F1F7
:101BD000203181F1E8946F936E7F6E5F7F4F8F4F5E
:101BE0009F4FAF4FB1E03ED0B4E03CD0670F781FBD
:101BF000891F9A1FA11D680F791F8A1F911DA11DA2
:101C00006A0F711D811D911DA11D20D009F46894DA
:101C10003F912AE0269F11243019305D3193DEF682
:101C2000CF010895462F4770405D4193B3E00FD038
:101C3000C9F7F6CF462F4F70405D4A3318F0495D23
:101C400031FD4052419302D0A9F7EACFB4E0A69506
:101C50009795879577956795BA95C9F70097610528
:101C6000710508959B01AC010A2E0694579547957E
:101C700037952795BA95C9F7620F731F841F951F73
:081C8000A01D0895F894FFCFA8
:101C88000A0049492825632943256420256320251E
:101C9800352E3266202563202825352E32665620BB
:101CA8002025352E32664129004348414E4E454C89
:101CB8002025647C204D4F44453A20256320204C44
:101CC800564C3A2025352E3266202563004E45575E
:101CD8003A204D4F4445202563207C204C455645ED
:101CE8004C2025352E326620256300415245205967
:101CF8004F5520535552453F0028256329594553D0
:101D08002020202020202020202020202825632972
:101D18004E4F0025342E31662C25342E31662C2565
:101D2800342E32662C25342E32662C25632C2563FE
:0C1D38002C25642C25642C25640A000076
:00000001FF
